{
    "_format": "hh-sol-artifact-1",
    "contractName": "Lend",
    "sourceName": "contracts/Lend.sol",
    "abi": [
        {
            "inputs": [
                {
                    "internalType": "address",
                    "name": "_rupyaTokenAddress",
                    "type": "address"
                }
            ],
            "stateMutability": "nonpayable",
            "type": "constructor"
        },
        {
            "anonymous": false,
            "inputs": [
                {
                    "indexed": true,
                    "internalType": "bytes32",
                    "name": "id",
                    "type": "bytes32"
                }
            ],
            "name": "ChainlinkCancelled",
            "type": "event"
        },
        {
            "anonymous": false,
            "inputs": [
                {
                    "indexed": true,
                    "internalType": "bytes32",
                    "name": "id",
                    "type": "bytes32"
                }
            ],
            "name": "ChainlinkFulfilled",
            "type": "event"
        },
        {
            "anonymous": false,
            "inputs": [
                {
                    "indexed": true,
                    "internalType": "bytes32",
                    "name": "id",
                    "type": "bytes32"
                }
            ],
            "name": "ChainlinkRequested",
            "type": "event"
        },
        {
            "anonymous": false,
            "inputs": [
                {
                    "indexed": true,
                    "internalType": "address",
                    "name": "previousOwner",
                    "type": "address"
                },
                {
                    "indexed": true,
                    "internalType": "address",
                    "name": "newOwner",
                    "type": "address"
                }
            ],
            "name": "OwnershipTransferred",
            "type": "event"
        },
        {
            "inputs": [
                {
                    "internalType": "address",
                    "name": "token",
                    "type": "address"
                }
            ],
            "name": "addAllowedTokens",
            "outputs": [],
            "stateMutability": "nonpayable",
            "type": "function"
        },
        {
            "inputs": [
                {
                    "internalType": "address",
                    "name": "token",
                    "type": "address"
                }
            ],
            "name": "getTokenEthPrice",
            "outputs": [
                {
                    "internalType": "uint256",
                    "name": "",
                    "type": "uint256"
                }
            ],
            "stateMutability": "view",
            "type": "function"
        },
        {
            "inputs": [
                {
                    "internalType": "address",
                    "name": "user",
                    "type": "address"
                },
                {
                    "internalType": "address",
                    "name": "token",
                    "type": "address"
                }
            ],
            "name": "getUserLendingBalanceEthValue",
            "outputs": [
                {
                    "internalType": "uint256",
                    "name": "",
                    "type": "uint256"
                }
            ],
            "stateMutability": "view",
            "type": "function"
        },
        {
            "inputs": [
                {
                    "internalType": "address",
                    "name": "user",
                    "type": "address"
                },
                {
                    "internalType": "address",
                    "name": "token",
                    "type": "address"
                }
            ],
            "name": "getUserTokenValue",
            "outputs": [
                {
                    "internalType": "uint256",
                    "name": "",
                    "type": "uint256"
                }
            ],
            "stateMutability": "view",
            "type": "function"
        },
        {
            "inputs": [
                {
                    "internalType": "address",
                    "name": "user",
                    "type": "address"
                }
            ],
            "name": "getUserTotalValue",
            "outputs": [
                {
                    "internalType": "uint256",
                    "name": "",
                    "type": "uint256"
                }
            ],
            "stateMutability": "view",
            "type": "function"
        },
        {
            "inputs": [],
            "name": "issueTokens",
            "outputs": [],
            "stateMutability": "nonpayable",
            "type": "function"
        },
        {
            "inputs": [
                {
                    "internalType": "uint256",
                    "name": "_amount",
                    "type": "uint256"
                },
                {
                    "internalType": "address",
                    "name": "token",
                    "type": "address"
                }
            ],
            "name": "lendTokens",
            "outputs": [],
            "stateMutability": "nonpayable",
            "type": "function"
        },
        {
            "inputs": [
                {
                    "internalType": "uint256",
                    "name": "",
                    "type": "uint256"
                }
            ],
            "name": "lenders",
            "outputs": [
                {
                    "internalType": "address",
                    "name": "",
                    "type": "address"
                }
            ],
            "stateMutability": "view",
            "type": "function"
        },
        {
            "inputs": [
                {
                    "internalType": "address",
                    "name": "",
                    "type": "address"
                },
                {
                    "internalType": "address",
                    "name": "",
                    "type": "address"
                }
            ],
            "name": "lendingBalance",
            "outputs": [
                {
                    "internalType": "uint256",
                    "name": "",
                    "type": "uint256"
                }
            ],
            "stateMutability": "view",
            "type": "function"
        },
        {
            "inputs": [],
            "name": "owner",
            "outputs": [
                {
                    "internalType": "address",
                    "name": "",
                    "type": "address"
                }
            ],
            "stateMutability": "view",
            "type": "function"
        },
        {
            "inputs": [],
            "name": "renounceOwnership",
            "outputs": [],
            "stateMutability": "nonpayable",
            "type": "function"
        },
        {
            "inputs": [],
            "name": "rupyaToken",
            "outputs": [
                {
                    "internalType": "contract IERC20",
                    "name": "",
                    "type": "address"
                }
            ],
            "stateMutability": "view",
            "type": "function"
        },
        {
            "inputs": [
                {
                    "internalType": "address",
                    "name": "token",
                    "type": "address"
                },
                {
                    "internalType": "address",
                    "name": "priceFeed",
                    "type": "address"
                }
            ],
            "name": "setPriceFeedContract",
            "outputs": [],
            "stateMutability": "nonpayable",
            "type": "function"
        },
        {
            "inputs": [
                {
                    "internalType": "address",
                    "name": "token",
                    "type": "address"
                }
            ],
            "name": "tokenIsAllowed",
            "outputs": [
                {
                    "internalType": "bool",
                    "name": "",
                    "type": "bool"
                }
            ],
            "stateMutability": "view",
            "type": "function"
        },
        {
            "inputs": [
                {
                    "internalType": "address",
                    "name": "",
                    "type": "address"
                }
            ],
            "name": "tokenPriceFeedMapping",
            "outputs": [
                {
                    "internalType": "address",
                    "name": "",
                    "type": "address"
                }
            ],
            "stateMutability": "view",
            "type": "function"
        },
        {
            "inputs": [
                {
                    "internalType": "address",
                    "name": "newOwner",
                    "type": "address"
                }
            ],
            "name": "transferOwnership",
            "outputs": [],
            "stateMutability": "nonpayable",
            "type": "function"
        },
        {
            "inputs": [
                {
                    "internalType": "address",
                    "name": "",
                    "type": "address"
                }
            ],
            "name": "uniqueTokensLent",
            "outputs": [
                {
                    "internalType": "uint256",
                    "name": "",
                    "type": "uint256"
                }
            ],
            "stateMutability": "view",
            "type": "function"
        },
        {
            "inputs": [
                {
                    "internalType": "uint256",
                    "name": "_amount",
                    "type": "uint256"
                },
                {
                    "internalType": "address",
                    "name": "token",
                    "type": "address"
                }
            ],
            "name": "withdrawTokens",
            "outputs": [],
            "stateMutability": "nonpayable",
            "type": "function"
        }
    ],
    "bytecode": "0x608060405260016004553480156200001657600080fd5b5060405162001e2438038062001e2483398181016040528101906200003c9190620001dc565b6200005c62000050620000a460201b60201c565b620000ac60201b60201c565b80600c60006101000a81548173ffffffffffffffffffffffffffffffffffffffff021916908373ffffffffffffffffffffffffffffffffffffffff160217905550506200020e565b600033905090565b6000600660009054906101000a900473ffffffffffffffffffffffffffffffffffffffff16905081600660006101000a81548173ffffffffffffffffffffffffffffffffffffffff021916908373ffffffffffffffffffffffffffffffffffffffff1602179055508173ffffffffffffffffffffffffffffffffffffffff168173ffffffffffffffffffffffffffffffffffffffff167f8be0079c531659141344cd1fd0a4f28419497f9722a3daafe3b4186f6b6457e060405160405180910390a35050565b600080fd5b600073ffffffffffffffffffffffffffffffffffffffff82169050919050565b6000620001a48262000177565b9050919050565b620001b68162000197565b8114620001c257600080fd5b50565b600081519050620001d681620001ab565b92915050565b600060208284031215620001f557620001f462000172565b5b60006200020584828501620001c5565b91505092915050565b611c06806200021e6000396000f3fe608060405234801561001057600080fd5b50600436106101155760003560e01c8063877dd39d116100a2578063af3f5e2211610071578063af3f5e22146102de578063dd5b84671461030e578063df00018d1461033e578063f2fde38b1461036e578063fcce65c01461038a57610115565b8063877dd39d146102565780638da5cb5b14610272578063929eea2114610290578063996c1385146102c057610115565b80633572e00d116100e95780633572e00d146101c6578063398d92bb146101f6578063468178211461021257806360ab585214610242578063715018a61461024c57610115565b8062e73f821461011a578063171e44ea1461014a5780631dd370641461016657806327927b3e14610196575b600080fd5b610134600480360381019061012f91906113d2565b6103a6565b604051610141919061142b565b60405180910390f35b610164600480360381019061015f9190611446565b6104a3565b005b610180600480360381019061017b91906113d2565b610511565b60405161018d919061142b565b60405180910390f35b6101b060048036038101906101ab9190611446565b610536565b6040516101bd9190611482565b60405180910390f35b6101e060048036038101906101db91906113d2565b610569565b6040516101ed919061142b565b60405180910390f35b610210600480360381019061020b91906114c9565b6105f0565b005b61022c60048036038101906102279190611446565b61091a565b604051610239919061142b565b60405180910390f35b61024a610932565b005b610254610a4d565b005b610270600480360381019061026b91906113d2565b610a61565b005b61027a610aeb565b6040516102879190611482565b60405180910390f35b6102aa60048036038101906102a59190611509565b610b15565b6040516102b79190611482565b60405180910390f35b6102c8610b54565b6040516102d59190611595565b60405180910390f35b6102f860048036038101906102f39190611446565b610b7a565b604051610305919061142b565b60405180910390f35b61032860048036038101906103239190611446565b610c4c565b60405161033591906115cb565b60405180910390f35b61035860048036038101906103539190611446565b610cfa565b604051610365919061142b565b60405180910390f35b61038860048036038101906103839190611446565b610df4565b005b6103a4600480360381019061039f91906114c9565b610e77565b005b600080600960008573ffffffffffffffffffffffffffffffffffffffff1673ffffffffffffffffffffffffffffffffffffffff16815260200190815260200160002054116103f7576000905061049d565b670de0b6b3a764000061040983610cfa565b600860008573ffffffffffffffffffffffffffffffffffffffff1673ffffffffffffffffffffffffffffffffffffffff16815260200190815260200160002060008673ffffffffffffffffffffffffffffffffffffffff1673ffffffffffffffffffffffffffffffffffffffff168152602001908152602001600020546104909190611615565b61049a9190611686565b90505b92915050565b6104ab61110b565b600b819080600181540180825580915050600190039060005260206000200160009091909190916101000a81548173ffffffffffffffffffffffffffffffffffffffff021916908373ffffffffffffffffffffffffffffffffffffffff16021790555050565b6008602052816000526040600020602052806000526040600020600091509150505481565b600a6020528060005260406000206000915054906101000a900473ffffffffffffffffffffffffffffffffffffffff1681565b6000600860008373ffffffffffffffffffffffffffffffffffffffff1673ffffffffffffffffffffffffffffffffffffffff16815260200190815260200160002060008473ffffffffffffffffffffffffffffffffffffffff1673ffffffffffffffffffffffffffffffffffffffff16815260200190815260200160002054905092915050565b6000600860008373ffffffffffffffffffffffffffffffffffffffff1673ffffffffffffffffffffffffffffffffffffffff16815260200190815260200160002060003373ffffffffffffffffffffffffffffffffffffffff1673ffffffffffffffffffffffffffffffffffffffff168152602001908152602001600020549050600081116106b4576040517f08c379a00000000000000000000000000000000000000000000000000000000081526004016106ab90611714565b60405180910390fd5b8281116106f6576040517f08c379a00000000000000000000000000000000000000000000000000000000081526004016106ed906117a6565b60405180910390fd5b8173ffffffffffffffffffffffffffffffffffffffff1663a9059cbb33856040518363ffffffff1660e01b81526004016107319291906117c6565b6020604051808303816000875af1158015610750573d6000803e3d6000fd5b505050506040513d601f19601f82011682018060405250810190610774919061181b565b5082816107819190611848565b600860008473ffffffffffffffffffffffffffffffffffffffff1673ffffffffffffffffffffffffffffffffffffffff16815260200190815260200160002060003373ffffffffffffffffffffffffffffffffffffffff1673ffffffffffffffffffffffffffffffffffffffff168152602001908152602001600020819055506000600860008473ffffffffffffffffffffffffffffffffffffffff1673ffffffffffffffffffffffffffffffffffffffff16815260200190815260200160002060003373ffffffffffffffffffffffffffffffffffffffff1673ffffffffffffffffffffffffffffffffffffffff1681526020019081526020016000205403610915576001600960003373ffffffffffffffffffffffffffffffffffffffff1673ffffffffffffffffffffffffffffffffffffffff168152602001908152602001600020546108d19190611848565b600960003373ffffffffffffffffffffffffffffffffffffffff1673ffffffffffffffffffffffffffffffffffffffff168152602001908152602001600020819055505b505050565b60096020528060005260406000206000915090505481565b61093a61110b565b60005b600780549050811015610a4a576000600782815481106109605761095f61187c565b5b9060005260206000200160009054906101000a900473ffffffffffffffffffffffffffffffffffffffff169050600c60009054906101000a900473ffffffffffffffffffffffffffffffffffffffff1673ffffffffffffffffffffffffffffffffffffffff1663a9059cbb826109d584610b7a565b6040518363ffffffff1660e01b81526004016109f29291906117c6565b6020604051808303816000875af1158015610a11573d6000803e3d6000fd5b505050506040513d601f19601f82011682018060405250810190610a35919061181b565b50508080610a42906118ab565b91505061093d565b50565b610a5561110b565b610a5f6000611189565b565b610a6961110b565b80600a60008473ffffffffffffffffffffffffffffffffffffffff1673ffffffffffffffffffffffffffffffffffffffff16815260200190815260200160002060006101000a81548173ffffffffffffffffffffffffffffffffffffffff021916908373ffffffffffffffffffffffffffffffffffffffff1602179055505050565b6000600660009054906101000a900473ffffffffffffffffffffffffffffffffffffffff16905090565b60078181548110610b2557600080fd5b906000526020600020016000915054906101000a900473ffffffffffffffffffffffffffffffffffffffff1681565b600c60009054906101000a900473ffffffffffffffffffffffffffffffffffffffff1681565b600080600090506000600960008573ffffffffffffffffffffffffffffffffffffffff1673ffffffffffffffffffffffffffffffffffffffff168152602001908152602001600020541115610c435760005b600b80549050811015610c4157610c2184600b8381548110610bf157610bf061187c565b5b9060005260206000200160009054906101000a900473ffffffffffffffffffffffffffffffffffffffff166103a6565b82610c2c91906118f3565b91508080610c39906118ab565b915050610bcc565b505b80915050919050565b600080600090505b600b80549050811015610cef578273ffffffffffffffffffffffffffffffffffffffff16600b8281548110610c8c57610c8b61187c565b5b9060005260206000200160009054906101000a900473ffffffffffffffffffffffffffffffffffffffff1673ffffffffffffffffffffffffffffffffffffffff1603610cdc576001915050610cf5565b8080610ce7906118ab565b915050610c54565b50600090505b919050565b600080600a60008473ffffffffffffffffffffffffffffffffffffffff1673ffffffffffffffffffffffffffffffffffffffff16815260200190815260200160002060009054906101000a900473ffffffffffffffffffffffffffffffffffffffff169050600081905060008060008060008573ffffffffffffffffffffffffffffffffffffffff1663feaf968c6040518163ffffffff1660e01b815260040160a060405180830381865afa158015610db7573d6000803e3d6000fd5b505050506040513d601f19601f82011682018060405250810190610ddb91906119b4565b9450945094509450945083975050505050505050919050565b610dfc61110b565b600073ffffffffffffffffffffffffffffffffffffffff168173ffffffffffffffffffffffffffffffffffffffff1603610e6b576040517f08c379a0000000000000000000000000000000000000000000000000000000008152600401610e6290611aa1565b60405180910390fd5b610e7481611189565b50565b60008211610eba576040517f08c379a0000000000000000000000000000000000000000000000000000000008152600401610eb190611b0d565b60405180910390fd5b610ec381610c4c565b1561110757610ed2338261124f565b8073ffffffffffffffffffffffffffffffffffffffff166323b872dd3330856040518463ffffffff1660e01b8152600401610f0f93929190611b2d565b6020604051808303816000875af1158015610f2e573d6000803e3d6000fd5b505050506040513d601f19601f82011682018060405250810190610f52919061181b565b5081600860008373ffffffffffffffffffffffffffffffffffffffff1673ffffffffffffffffffffffffffffffffffffffff16815260200190815260200160002060003373ffffffffffffffffffffffffffffffffffffffff1673ffffffffffffffffffffffffffffffffffffffff16815260200190815260200160002054610fdb91906118f3565b600860008373ffffffffffffffffffffffffffffffffffffffff1673ffffffffffffffffffffffffffffffffffffffff16815260200190815260200160002060003373ffffffffffffffffffffffffffffffffffffffff1673ffffffffffffffffffffffffffffffffffffffff168152602001908152602001600020819055506001600960003373ffffffffffffffffffffffffffffffffffffffff1673ffffffffffffffffffffffffffffffffffffffff1681526020019081526020016000205403611106576007339080600181540180825580915050600190039060005260206000200160009091909190916101000a81548173ffffffffffffffffffffffffffffffffffffffff021916908373ffffffffffffffffffffffffffffffffffffffff1602179055505b5b5050565b611113611367565b73ffffffffffffffffffffffffffffffffffffffff16611131610aeb565b73ffffffffffffffffffffffffffffffffffffffff1614611187576040517f08c379a000000000000000000000000000000000000000000000000000000000815260040161117e90611bb0565b60405180910390fd5b565b6000600660009054906101000a900473ffffffffffffffffffffffffffffffffffffffff16905081600660006101000a81548173ffffffffffffffffffffffffffffffffffffffff021916908373ffffffffffffffffffffffffffffffffffffffff1602179055508173ffffffffffffffffffffffffffffffffffffffff168173ffffffffffffffffffffffffffffffffffffffff167f8be0079c531659141344cd1fd0a4f28419497f9722a3daafe3b4186f6b6457e060405160405180910390a35050565b6000600860008373ffffffffffffffffffffffffffffffffffffffff1673ffffffffffffffffffffffffffffffffffffffff16815260200190815260200160002060008473ffffffffffffffffffffffffffffffffffffffff1673ffffffffffffffffffffffffffffffffffffffff1681526020019081526020016000205411611363576001600960008473ffffffffffffffffffffffffffffffffffffffff1673ffffffffffffffffffffffffffffffffffffffff1681526020019081526020016000205461131f91906118f3565b600960008473ffffffffffffffffffffffffffffffffffffffff1673ffffffffffffffffffffffffffffffffffffffff168152602001908152602001600020819055505b5050565b600033905090565b600080fd5b600073ffffffffffffffffffffffffffffffffffffffff82169050919050565b600061139f82611374565b9050919050565b6113af81611394565b81146113ba57600080fd5b50565b6000813590506113cc816113a6565b92915050565b600080604083850312156113e9576113e861136f565b5b60006113f7858286016113bd565b9250506020611408858286016113bd565b9150509250929050565b6000819050919050565b61142581611412565b82525050565b6000602082019050611440600083018461141c565b92915050565b60006020828403121561145c5761145b61136f565b5b600061146a848285016113bd565b91505092915050565b61147c81611394565b82525050565b60006020820190506114976000830184611473565b92915050565b6114a681611412565b81146114b157600080fd5b50565b6000813590506114c38161149d565b92915050565b600080604083850312156114e0576114df61136f565b5b60006114ee858286016114b4565b92505060206114ff858286016113bd565b9150509250929050565b60006020828403121561151f5761151e61136f565b5b600061152d848285016114b4565b91505092915050565b6000819050919050565b600061155b61155661155184611374565b611536565b611374565b9050919050565b600061156d82611540565b9050919050565b600061157f82611562565b9050919050565b61158f81611574565b82525050565b60006020820190506115aa6000830184611586565b92915050565b60008115159050919050565b6115c5816115b0565b82525050565b60006020820190506115e060008301846115bc565b92915050565b7f4e487b7100000000000000000000000000000000000000000000000000000000600052601160045260246000fd5b600061162082611412565b915061162b83611412565b925082820261163981611412565b915082820484148315176116505761164f6115e6565b5b5092915050565b7f4e487b7100000000000000000000000000000000000000000000000000000000600052601260045260246000fd5b600061169182611412565b915061169c83611412565b9250826116ac576116ab611657565b5b828204905092915050565b600082825260208201905092915050565b7f6c656e64696e672062616c616e63652063616e6e6f7420626520300000000000600082015250565b60006116fe601b836116b7565b9150611709826116c8565b602082019050919050565b6000602082019050818103600083015261172d816116f1565b9050919050565b7f7769746864726177616c2062616c616e63652063616e6e6f74206265206c657360008201527f73207468616e206c656e64696e672062616c616e636500000000000000000000602082015250565b60006117906036836116b7565b915061179b82611734565b604082019050919050565b600060208201905081810360008301526117bf81611783565b9050919050565b60006040820190506117db6000830185611473565b6117e8602083018461141c565b9392505050565b6117f8816115b0565b811461180357600080fd5b50565b600081519050611815816117ef565b92915050565b6000602082840312156118315761183061136f565b5b600061183f84828501611806565b91505092915050565b600061185382611412565b915061185e83611412565b9250828203905081811115611876576118756115e6565b5b92915050565b7f4e487b7100000000000000000000000000000000000000000000000000000000600052603260045260246000fd5b60006118b682611412565b91507fffffffffffffffffffffffffffffffffffffffffffffffffffffffffffffffff82036118e8576118e76115e6565b5b600182019050919050565b60006118fe82611412565b915061190983611412565b9250828201905080821115611921576119206115e6565b5b92915050565b600069ffffffffffffffffffff82169050919050565b61194681611927565b811461195157600080fd5b50565b6000815190506119638161193d565b92915050565b6000819050919050565b61197c81611969565b811461198757600080fd5b50565b60008151905061199981611973565b92915050565b6000815190506119ae8161149d565b92915050565b600080600080600060a086880312156119d0576119cf61136f565b5b60006119de88828901611954565b95505060206119ef8882890161198a565b9450506040611a008882890161199f565b9350506060611a118882890161199f565b9250506080611a2288828901611954565b9150509295509295909350565b7f4f776e61626c653a206e6577206f776e657220697320746865207a65726f206160008201527f6464726573730000000000000000000000000000000000000000000000000000602082015250565b6000611a8b6026836116b7565b9150611a9682611a2f565b604082019050919050565b60006020820190508181036000830152611aba81611a7e565b9050919050565b7f616d6f756e742063616e6e6f7420626520300000000000000000000000000000600082015250565b6000611af76012836116b7565b9150611b0282611ac1565b602082019050919050565b60006020820190508181036000830152611b2681611aea565b9050919050565b6000606082019050611b426000830186611473565b611b4f6020830185611473565b611b5c604083018461141c565b949350505050565b7f4f776e61626c653a2063616c6c6572206973206e6f7420746865206f776e6572600082015250565b6000611b9a6020836116b7565b9150611ba582611b64565b602082019050919050565b60006020820190508181036000830152611bc981611b8d565b905091905056fea2646970667358221220ffdb5aaff7d1df2d0f5d2bcea4be05736b2b29e823498a90f7b735a22850b4f564736f6c63430008140033",
    "linkReferences": {},
    "deployedLinkReferences": {}
}