{
    "_format": "hh-sol-artifact-1",
    "contractName": "LendBorrow",
    "sourceName": "contracts/LendBorrow.sol",
    "abi": [
        {
            "inputs": [
                {
                    "internalType": "address",
                    "name": "_rupyaTokenAddress",
                    "type": "address"
                },
                {
                    "internalType": "address",
                    "name": "_usdcTokenAddress",
                    "type": "address"
                }
            ],
            "stateMutability": "nonpayable",
            "type": "constructor"
        },
        {
            "anonymous": false,
            "inputs": [
                {
                    "indexed": true,
                    "internalType": "bytes32",
                    "name": "id",
                    "type": "bytes32"
                }
            ],
            "name": "ChainlinkCancelled",
            "type": "event"
        },
        {
            "anonymous": false,
            "inputs": [
                {
                    "indexed": true,
                    "internalType": "bytes32",
                    "name": "id",
                    "type": "bytes32"
                }
            ],
            "name": "ChainlinkFulfilled",
            "type": "event"
        },
        {
            "anonymous": false,
            "inputs": [
                {
                    "indexed": true,
                    "internalType": "bytes32",
                    "name": "id",
                    "type": "bytes32"
                }
            ],
            "name": "ChainlinkRequested",
            "type": "event"
        },
        {
            "anonymous": false,
            "inputs": [
                {
                    "indexed": true,
                    "internalType": "address",
                    "name": "previousOwner",
                    "type": "address"
                },
                {
                    "indexed": true,
                    "internalType": "address",
                    "name": "newOwner",
                    "type": "address"
                }
            ],
            "name": "OwnershipTransferred",
            "type": "event"
        },
        {
            "anonymous": false,
            "inputs": [
                {
                    "indexed": false,
                    "internalType": "address",
                    "name": "user",
                    "type": "address"
                },
                {
                    "indexed": false,
                    "internalType": "uint256",
                    "name": "index",
                    "type": "uint256"
                },
                {
                    "indexed": false,
                    "internalType": "string",
                    "name": "ipfsHash",
                    "type": "string"
                }
            ],
            "name": "newLoanRequest",
            "type": "event"
        },
        {
            "inputs": [
                {
                    "internalType": "address",
                    "name": "token",
                    "type": "address"
                }
            ],
            "name": "addAllowedTokens",
            "outputs": [],
            "stateMutability": "nonpayable",
            "type": "function"
        },
        {
            "inputs": [
                {
                    "internalType": "address",
                    "name": "user",
                    "type": "address"
                },
                {
                    "internalType": "uint256",
                    "name": "index",
                    "type": "uint256"
                }
            ],
            "name": "approveBorrowRequest",
            "outputs": [],
            "stateMutability": "nonpayable",
            "type": "function"
        },
        {
            "inputs": [
                {
                    "internalType": "uint256",
                    "name": "principal",
                    "type": "uint256"
                },
                {
                    "internalType": "uint256",
                    "name": "duration",
                    "type": "uint256"
                },
                {
                    "internalType": "address",
                    "name": "token",
                    "type": "address"
                },
                {
                    "internalType": "uint256",
                    "name": "totalAmount",
                    "type": "uint256"
                },
                {
                    "internalType": "string",
                    "name": "ipfsHash",
                    "type": "string"
                }
            ],
            "name": "createBorrowRequest",
            "outputs": [],
            "stateMutability": "nonpayable",
            "type": "function"
        },
        {
            "inputs": [
                {
                    "internalType": "address",
                    "name": "",
                    "type": "address"
                },
                {
                    "internalType": "uint256",
                    "name": "",
                    "type": "uint256"
                }
            ],
            "name": "entriesForUser",
            "outputs": [
                {
                    "internalType": "uint256",
                    "name": "",
                    "type": "uint256"
                }
            ],
            "stateMutability": "view",
            "type": "function"
        },
        {
            "inputs": [
                {
                    "internalType": "uint256",
                    "name": "index",
                    "type": "uint256"
                }
            ],
            "name": "getApprovalStatus",
            "outputs": [
                {
                    "internalType": "bool",
                    "name": "",
                    "type": "bool"
                }
            ],
            "stateMutability": "view",
            "type": "function"
        },
        {
            "inputs": [
                {
                    "internalType": "address",
                    "name": "token",
                    "type": "address"
                }
            ],
            "name": "getTokenEthPrice",
            "outputs": [
                {
                    "internalType": "uint256",
                    "name": "",
                    "type": "uint256"
                }
            ],
            "stateMutability": "view",
            "type": "function"
        },
        {
            "inputs": [
                {
                    "internalType": "address",
                    "name": "user",
                    "type": "address"
                },
                {
                    "internalType": "address",
                    "name": "token",
                    "type": "address"
                }
            ],
            "name": "getUserLendingBalanceEthValue",
            "outputs": [
                {
                    "internalType": "uint256",
                    "name": "",
                    "type": "uint256"
                }
            ],
            "stateMutability": "view",
            "type": "function"
        },
        {
            "inputs": [
                {
                    "internalType": "address",
                    "name": "user",
                    "type": "address"
                },
                {
                    "internalType": "address",
                    "name": "token",
                    "type": "address"
                }
            ],
            "name": "getUserTokenValue",
            "outputs": [
                {
                    "internalType": "uint256",
                    "name": "",
                    "type": "uint256"
                }
            ],
            "stateMutability": "view",
            "type": "function"
        },
        {
            "inputs": [
                {
                    "internalType": "address",
                    "name": "user",
                    "type": "address"
                }
            ],
            "name": "getUserTotalValue",
            "outputs": [
                {
                    "internalType": "uint256",
                    "name": "",
                    "type": "uint256"
                }
            ],
            "stateMutability": "view",
            "type": "function"
        },
        {
            "inputs": [],
            "name": "issueTokens",
            "outputs": [],
            "stateMutability": "nonpayable",
            "type": "function"
        },
        {
            "inputs": [
                {
                    "internalType": "uint256",
                    "name": "index",
                    "type": "uint256"
                }
            ],
            "name": "lendMoney",
            "outputs": [],
            "stateMutability": "nonpayable",
            "type": "function"
        },
        {
            "inputs": [
                {
                    "internalType": "uint256",
                    "name": "_amount",
                    "type": "uint256"
                },
                {
                    "internalType": "address",
                    "name": "token",
                    "type": "address"
                }
            ],
            "name": "lendTokens",
            "outputs": [],
            "stateMutability": "nonpayable",
            "type": "function"
        },
        {
            "inputs": [
                {
                    "internalType": "uint256",
                    "name": "",
                    "type": "uint256"
                }
            ],
            "name": "lenders",
            "outputs": [
                {
                    "internalType": "address",
                    "name": "",
                    "type": "address"
                }
            ],
            "stateMutability": "view",
            "type": "function"
        },
        {
            "inputs": [
                {
                    "internalType": "address",
                    "name": "",
                    "type": "address"
                },
                {
                    "internalType": "address",
                    "name": "",
                    "type": "address"
                }
            ],
            "name": "lendingBalance",
            "outputs": [
                {
                    "internalType": "uint256",
                    "name": "",
                    "type": "uint256"
                }
            ],
            "stateMutability": "view",
            "type": "function"
        },
        {
            "inputs": [],
            "name": "owner",
            "outputs": [
                {
                    "internalType": "address",
                    "name": "",
                    "type": "address"
                }
            ],
            "stateMutability": "view",
            "type": "function"
        },
        {
            "inputs": [],
            "name": "renounceOwnership",
            "outputs": [],
            "stateMutability": "nonpayable",
            "type": "function"
        },
        {
            "inputs": [],
            "name": "rupyaToken",
            "outputs": [
                {
                    "internalType": "contract IERC20",
                    "name": "",
                    "type": "address"
                }
            ],
            "stateMutability": "view",
            "type": "function"
        },
        {
            "inputs": [
                {
                    "internalType": "address",
                    "name": "token",
                    "type": "address"
                },
                {
                    "internalType": "address",
                    "name": "priceFeed",
                    "type": "address"
                }
            ],
            "name": "setPriceFeedContract",
            "outputs": [],
            "stateMutability": "nonpayable",
            "type": "function"
        },
        {
            "inputs": [
                {
                    "internalType": "address",
                    "name": "token",
                    "type": "address"
                }
            ],
            "name": "tokenIsAllowed",
            "outputs": [
                {
                    "internalType": "bool",
                    "name": "",
                    "type": "bool"
                }
            ],
            "stateMutability": "view",
            "type": "function"
        },
        {
            "inputs": [
                {
                    "internalType": "address",
                    "name": "",
                    "type": "address"
                }
            ],
            "name": "tokenPriceFeedMapping",
            "outputs": [
                {
                    "internalType": "address",
                    "name": "",
                    "type": "address"
                }
            ],
            "stateMutability": "view",
            "type": "function"
        },
        {
            "inputs": [
                {
                    "internalType": "address",
                    "name": "newOwner",
                    "type": "address"
                }
            ],
            "name": "transferOwnership",
            "outputs": [],
            "stateMutability": "nonpayable",
            "type": "function"
        },
        {
            "inputs": [
                {
                    "internalType": "address",
                    "name": "",
                    "type": "address"
                }
            ],
            "name": "uniqueTokensLent",
            "outputs": [
                {
                    "internalType": "uint256",
                    "name": "",
                    "type": "uint256"
                }
            ],
            "stateMutability": "view",
            "type": "function"
        },
        {
            "inputs": [],
            "name": "usdcToken",
            "outputs": [
                {
                    "internalType": "contract IERC20",
                    "name": "",
                    "type": "address"
                }
            ],
            "stateMutability": "view",
            "type": "function"
        },
        {
            "inputs": [
                {
                    "internalType": "uint256",
                    "name": "_amount",
                    "type": "uint256"
                },
                {
                    "internalType": "address",
                    "name": "token",
                    "type": "address"
                }
            ],
            "name": "withdrawTokens",
            "outputs": [],
            "stateMutability": "nonpayable",
            "type": "function"
        }
    ],
    "bytecode": "0x608060405260016004553480156200001657600080fd5b5060405162002ca238038062002ca283398181016040528101906200003c9190620002a0565b6200005c620000506200016860201b60201c565b6200017060201b60201c565b81600c60006101000a81548173ffffffffffffffffffffffffffffffffffffffff021916908373ffffffffffffffffffffffffffffffffffffffff16021790555080600d60006101000a81548173ffffffffffffffffffffffffffffffffffffffff021916908373ffffffffffffffffffffffffffffffffffffffff16021790555081600f60006101000a81548173ffffffffffffffffffffffffffffffffffffffff021916908373ffffffffffffffffffffffffffffffffffffffff16021790555080600e60006101000a81548173ffffffffffffffffffffffffffffffffffffffff021916908373ffffffffffffffffffffffffffffffffffffffff1602179055505050620002e7565b600033905090565b6000600660009054906101000a900473ffffffffffffffffffffffffffffffffffffffff16905081600660006101000a81548173ffffffffffffffffffffffffffffffffffffffff021916908373ffffffffffffffffffffffffffffffffffffffff1602179055508173ffffffffffffffffffffffffffffffffffffffff168173ffffffffffffffffffffffffffffffffffffffff167f8be0079c531659141344cd1fd0a4f28419497f9722a3daafe3b4186f6b6457e060405160405180910390a35050565b600080fd5b600073ffffffffffffffffffffffffffffffffffffffff82169050919050565b600062000268826200023b565b9050919050565b6200027a816200025b565b81146200028657600080fd5b50565b6000815190506200029a816200026f565b92915050565b60008060408385031215620002ba57620002b962000236565b5b6000620002ca8582860162000289565b9250506020620002dd8582860162000289565b9150509250929050565b6129ab80620002f76000396000f3fe608060405234801561001057600080fd5b50600436106101575760003560e01c80638da5cb5b116100c3578063cf16fd0b1161007c578063cf16fd0b146103d6578063dd5b846714610406578063df00018d14610436578063f2fde38b14610466578063f344e7e914610482578063fcce65c01461049e57610157565b80638da5cb5b14610302578063929eea2114610320578063935c7f1114610350578063996c13851461036c578063af3f5e221461038a578063bec228d8146103ba57610157565b80633572e00d116101155780633572e00d14610256578063398d92bb1461028657806346817821146102a257806360ab5852146102d2578063715018a6146102dc578063877dd39d146102e657610157565b8062e73f821461015c57806311eac8551461018c578063171e44ea146101aa5780631dd37064146101c657806326d2ad5a146101f657806327927b3e14610226575b600080fd5b61017660048036038101906101719190611bda565b6104ba565b6040516101839190611c33565b60405180910390f35b6101946105b7565b6040516101a19190611cad565b60405180910390f35b6101c460048036038101906101bf9190611cc8565b6105dd565b005b6101e060048036038101906101db9190611bda565b61064b565b6040516101ed9190611c33565b60405180910390f35b610210600480360381019061020b9190611d21565b610670565b60405161021d9190611c33565b60405180910390f35b610240600480360381019061023b9190611cc8565b6106a1565b60405161024d9190611d70565b60405180910390f35b610270600480360381019061026b9190611bda565b6106d4565b60405161027d9190611c33565b60405180910390f35b6102a0600480360381019061029b9190611d8b565b61075b565b005b6102bc60048036038101906102b79190611cc8565b610a85565b6040516102c99190611c33565b60405180910390f35b6102da610a9d565b005b6102e4610bb8565b005b61030060048036038101906102fb9190611bda565b610bcc565b005b61030a610c56565b6040516103179190611d70565b60405180910390f35b61033a60048036038101906103359190611dcb565b610c80565b6040516103479190611d70565b60405180910390f35b61036a60048036038101906103659190611f3e565b610cbf565b005b610374610f8f565b6040516103819190611cad565b60405180910390f35b6103a4600480360381019061039f9190611cc8565b610fb5565b6040516103b19190611c33565b60405180910390f35b6103d460048036038101906103cf9190611dcb565b611087565b005b6103f060048036038101906103eb9190611dcb565b61120d565b6040516103fd9190611ff0565b60405180910390f35b610420600480360381019061041b9190611cc8565b611286565b60405161042d9190611ff0565b60405180910390f35b610450600480360381019061044b9190611cc8565b611334565b60405161045d9190611c33565b60405180910390f35b610480600480360381019061047b9190611cc8565b61142e565b005b61049c60048036038101906104979190611d21565b6114b1565b005b6104b860048036038101906104b39190611d8b565b611670565b005b600080600960008573ffffffffffffffffffffffffffffffffffffffff1673ffffffffffffffffffffffffffffffffffffffff168152602001908152602001600020541161050b57600090506105b1565b670de0b6b3a764000061051d83611334565b600860008573ffffffffffffffffffffffffffffffffffffffff1673ffffffffffffffffffffffffffffffffffffffff16815260200190815260200160002060008673ffffffffffffffffffffffffffffffffffffffff1673ffffffffffffffffffffffffffffffffffffffff168152602001908152602001600020546105a4919061203a565b6105ae91906120ab565b90505b92915050565b600d60009054906101000a900473ffffffffffffffffffffffffffffffffffffffff1681565b6105e5611904565b600b819080600181540180825580915050600190039060005260206000200160009091909190916101000a81548173ffffffffffffffffffffffffffffffffffffffff021916908373ffffffffffffffffffffffffffffffffffffffff16021790555050565b6008602052816000526040600020602052806000526040600020600091509150505481565b6014602052816000526040600020818154811061068c57600080fd5b90600052602060002001600091509150505481565b600a6020528060005260406000206000915054906101000a900473ffffffffffffffffffffffffffffffffffffffff1681565b6000600860008373ffffffffffffffffffffffffffffffffffffffff1673ffffffffffffffffffffffffffffffffffffffff16815260200190815260200160002060008473ffffffffffffffffffffffffffffffffffffffff1673ffffffffffffffffffffffffffffffffffffffff16815260200190815260200160002054905092915050565b6000600860008373ffffffffffffffffffffffffffffffffffffffff1673ffffffffffffffffffffffffffffffffffffffff16815260200190815260200160002060003373ffffffffffffffffffffffffffffffffffffffff1673ffffffffffffffffffffffffffffffffffffffff1681526020019081526020016000205490506000811161081f576040517f08c379a000000000000000000000000000000000000000000000000000000000815260040161081690612139565b60405180910390fd5b828111610861576040517f08c379a0000000000000000000000000000000000000000000000000000000008152600401610858906121cb565b60405180910390fd5b8173ffffffffffffffffffffffffffffffffffffffff1663a9059cbb33856040518363ffffffff1660e01b815260040161089c9291906121eb565b6020604051808303816000875af11580156108bb573d6000803e3d6000fd5b505050506040513d601f19601f820116820180604052508101906108df9190612240565b5082816108ec919061226d565b600860008473ffffffffffffffffffffffffffffffffffffffff1673ffffffffffffffffffffffffffffffffffffffff16815260200190815260200160002060003373ffffffffffffffffffffffffffffffffffffffff1673ffffffffffffffffffffffffffffffffffffffff168152602001908152602001600020819055506000600860008473ffffffffffffffffffffffffffffffffffffffff1673ffffffffffffffffffffffffffffffffffffffff16815260200190815260200160002060003373ffffffffffffffffffffffffffffffffffffffff1673ffffffffffffffffffffffffffffffffffffffff1681526020019081526020016000205403610a80576001600960003373ffffffffffffffffffffffffffffffffffffffff1673ffffffffffffffffffffffffffffffffffffffff16815260200190815260200160002054610a3c919061226d565b600960003373ffffffffffffffffffffffffffffffffffffffff1673ffffffffffffffffffffffffffffffffffffffff168152602001908152602001600020819055505b505050565b60096020528060005260406000206000915090505481565b610aa5611904565b60005b600780549050811015610bb557600060078281548110610acb57610aca6122a1565b5b9060005260206000200160009054906101000a900473ffffffffffffffffffffffffffffffffffffffff169050600c60009054906101000a900473ffffffffffffffffffffffffffffffffffffffff1673ffffffffffffffffffffffffffffffffffffffff1663a9059cbb82610b4084610fb5565b6040518363ffffffff1660e01b8152600401610b5d9291906121eb565b6020604051808303816000875af1158015610b7c573d6000803e3d6000fd5b505050506040513d601f19601f82011682018060405250810190610ba09190612240565b50508080610bad906122d0565b915050610aa8565b50565b610bc0611904565b610bca6000611982565b565b610bd4611904565b80600a60008473ffffffffffffffffffffffffffffffffffffffff1673ffffffffffffffffffffffffffffffffffffffff16815260200190815260200160002060006101000a81548173ffffffffffffffffffffffffffffffffffffffff021916908373ffffffffffffffffffffffffffffffffffffffff1602179055505050565b6000600660009054906101000a900473ffffffffffffffffffffffffffffffffffffffff16905090565b60078181548110610c9057600080fd5b906000526020600020016000915054906101000a900473ffffffffffffffffffffffffffffffffffffffff1681565b60006040518061010001604052808573ffffffffffffffffffffffffffffffffffffffff16815260200187815260200184815260200186815260200160008152602001600015158152602001600015158152602001838152509050601560003373ffffffffffffffffffffffffffffffffffffffff1673ffffffffffffffffffffffffffffffffffffffff16815260200190815260200160002081908060018154018082558091505060019003906000526020600020906007020160009091909190915060008201518160000160006101000a81548173ffffffffffffffffffffffffffffffffffffffff021916908373ffffffffffffffffffffffffffffffffffffffff1602179055506020820151816001015560408201518160020155606082015181600301556080820151816004015560a08201518160050160006101000a81548160ff02191690831515021790555060c08201518160050160016101000a81548160ff02191690831515021790555060e0820151816006019081610e479190612525565b505050601660003373ffffffffffffffffffffffffffffffffffffffff1673ffffffffffffffffffffffffffffffffffffffff1681526020019081526020016000206001601560003373ffffffffffffffffffffffffffffffffffffffff1673ffffffffffffffffffffffffffffffffffffffff16815260200190815260200160002080549050610ed8919061226d565b90806001815401808255809150506001900390600052602060002001600090919091909150557f769845dbb156181faaf79058d46735251c58a1933bf7cc8e5fe7edfc3ae515ff336001601560003373ffffffffffffffffffffffffffffffffffffffff1673ffffffffffffffffffffffffffffffffffffffff16815260200190815260200160002080549050610f6f919061226d565b84604051610f7f9392919061265a565b60405180910390a1505050505050565b600c60009054906101000a900473ffffffffffffffffffffffffffffffffffffffff1681565b600080600090506000600960008573ffffffffffffffffffffffffffffffffffffffff1673ffffffffffffffffffffffffffffffffffffffff16815260200190815260200160002054111561107e5760005b600b8054905081101561107c5761105c84600b838154811061102c5761102b6122a1565b5b9060005260206000200160009054906101000a900473ffffffffffffffffffffffffffffffffffffffff166104ba565b826110679190612698565b91508080611074906122d0565b915050611007565b505b80915050919050565b60011515601560003373ffffffffffffffffffffffffffffffffffffffff1673ffffffffffffffffffffffffffffffffffffffff16815260200190815260200160002082815481106110dc576110db6122a1565b5b906000526020600020906007020160050160019054906101000a900460ff1615151461110757600080fd5b600d60009054906101000a900473ffffffffffffffffffffffffffffffffffffffff1673ffffffffffffffffffffffffffffffffffffffff1663a9059cbb33601560003373ffffffffffffffffffffffffffffffffffffffff1673ffffffffffffffffffffffffffffffffffffffff1681526020019081526020016000208481548110611197576111966122a1565b5b9060005260206000209060070201600101546040518363ffffffff1660e01b81526004016111c69291906121eb565b6020604051808303816000875af11580156111e5573d6000803e3d6000fd5b505050506040513d601f19601f820116820180604052508101906112099190612240565b5050565b6000601560003373ffffffffffffffffffffffffffffffffffffffff1673ffffffffffffffffffffffffffffffffffffffff16815260200190815260200160002082815481106112605761125f6122a1565b5b906000526020600020906007020160050160019054906101000a900460ff169050919050565b600080600090505b600b80549050811015611329578273ffffffffffffffffffffffffffffffffffffffff16600b82815481106112c6576112c56122a1565b5b9060005260206000200160009054906101000a900473ffffffffffffffffffffffffffffffffffffffff1673ffffffffffffffffffffffffffffffffffffffff160361131657600191505061132f565b8080611321906122d0565b91505061128e565b50600090505b919050565b600080600a60008473ffffffffffffffffffffffffffffffffffffffff1673ffffffffffffffffffffffffffffffffffffffff16815260200190815260200160002060009054906101000a900473ffffffffffffffffffffffffffffffffffffffff169050600081905060008060008060008573ffffffffffffffffffffffffffffffffffffffff1663feaf968c6040518163ffffffff1660e01b815260040160a060405180830381865afa1580156113f1573d6000803e3d6000fd5b505050506040513d601f19601f820116820180604052508101906114159190612759565b9450945094509450945083975050505050505050919050565b611436611904565b600073ffffffffffffffffffffffffffffffffffffffff168173ffffffffffffffffffffffffffffffffffffffff16036114a5576040517f08c379a000000000000000000000000000000000000000000000000000000000815260040161149c90612846565b60405180910390fd5b6114ae81611982565b50565b6001601560008473ffffffffffffffffffffffffffffffffffffffff1673ffffffffffffffffffffffffffffffffffffffff1681526020019081526020016000208281548110611504576115036122a1565b5b9060005260206000209060070201600401546115209190612698565b601560008473ffffffffffffffffffffffffffffffffffffffff1673ffffffffffffffffffffffffffffffffffffffff1681526020019081526020016000208281548110611571576115706122a1565b5b9060005260206000209060070201600401819055506002601560008473ffffffffffffffffffffffffffffffffffffffff1673ffffffffffffffffffffffffffffffffffffffff16815260200190815260200160002082815481106115d9576115d86122a1565b5b9060005260206000209060070201600401540361166c576001601560008473ffffffffffffffffffffffffffffffffffffffff1673ffffffffffffffffffffffffffffffffffffffff1681526020019081526020016000208281548110611643576116426122a1565b5b906000526020600020906007020160050160016101000a81548160ff0219169083151502179055505b5050565b600082116116b3576040517f08c379a00000000000000000000000000000000000000000000000000000000081526004016116aa906128b2565b60405180910390fd5b6116bc81611286565b15611900576116cb3382611a48565b8073ffffffffffffffffffffffffffffffffffffffff166323b872dd3330856040518463ffffffff1660e01b8152600401611708939291906128d2565b6020604051808303816000875af1158015611727573d6000803e3d6000fd5b505050506040513d601f19601f8201168201806040525081019061174b9190612240565b5081600860008373ffffffffffffffffffffffffffffffffffffffff1673ffffffffffffffffffffffffffffffffffffffff16815260200190815260200160002060003373ffffffffffffffffffffffffffffffffffffffff1673ffffffffffffffffffffffffffffffffffffffff168152602001908152602001600020546117d49190612698565b600860008373ffffffffffffffffffffffffffffffffffffffff1673ffffffffffffffffffffffffffffffffffffffff16815260200190815260200160002060003373ffffffffffffffffffffffffffffffffffffffff1673ffffffffffffffffffffffffffffffffffffffff168152602001908152602001600020819055506001600960003373ffffffffffffffffffffffffffffffffffffffff1673ffffffffffffffffffffffffffffffffffffffff16815260200190815260200160002054036118ff576007339080600181540180825580915050600190039060005260206000200160009091909190916101000a81548173ffffffffffffffffffffffffffffffffffffffff021916908373ffffffffffffffffffffffffffffffffffffffff1602179055505b5b5050565b61190c611b60565b73ffffffffffffffffffffffffffffffffffffffff1661192a610c56565b73ffffffffffffffffffffffffffffffffffffffff1614611980576040517f08c379a000000000000000000000000000000000000000000000000000000000815260040161197790612955565b60405180910390fd5b565b6000600660009054906101000a900473ffffffffffffffffffffffffffffffffffffffff16905081600660006101000a81548173ffffffffffffffffffffffffffffffffffffffff021916908373ffffffffffffffffffffffffffffffffffffffff1602179055508173ffffffffffffffffffffffffffffffffffffffff168173ffffffffffffffffffffffffffffffffffffffff167f8be0079c531659141344cd1fd0a4f28419497f9722a3daafe3b4186f6b6457e060405160405180910390a35050565b6000600860008373ffffffffffffffffffffffffffffffffffffffff1673ffffffffffffffffffffffffffffffffffffffff16815260200190815260200160002060008473ffffffffffffffffffffffffffffffffffffffff1673ffffffffffffffffffffffffffffffffffffffff1681526020019081526020016000205411611b5c576001600960008473ffffffffffffffffffffffffffffffffffffffff1673ffffffffffffffffffffffffffffffffffffffff16815260200190815260200160002054611b189190612698565b600960008473ffffffffffffffffffffffffffffffffffffffff1673ffffffffffffffffffffffffffffffffffffffff168152602001908152602001600020819055505b5050565b600033905090565b6000604051905090565b600080fd5b600080fd5b600073ffffffffffffffffffffffffffffffffffffffff82169050919050565b6000611ba782611b7c565b9050919050565b611bb781611b9c565b8114611bc257600080fd5b50565b600081359050611bd481611bae565b92915050565b60008060408385031215611bf157611bf0611b72565b5b6000611bff85828601611bc5565b9250506020611c1085828601611bc5565b9150509250929050565b6000819050919050565b611c2d81611c1a565b82525050565b6000602082019050611c486000830184611c24565b92915050565b6000819050919050565b6000611c73611c6e611c6984611b7c565b611c4e565b611b7c565b9050919050565b6000611c8582611c58565b9050919050565b6000611c9782611c7a565b9050919050565b611ca781611c8c565b82525050565b6000602082019050611cc26000830184611c9e565b92915050565b600060208284031215611cde57611cdd611b72565b5b6000611cec84828501611bc5565b91505092915050565b611cfe81611c1a565b8114611d0957600080fd5b50565b600081359050611d1b81611cf5565b92915050565b60008060408385031215611d3857611d37611b72565b5b6000611d4685828601611bc5565b9250506020611d5785828601611d0c565b9150509250929050565b611d6a81611b9c565b82525050565b6000602082019050611d856000830184611d61565b92915050565b60008060408385031215611da257611da1611b72565b5b6000611db085828601611d0c565b9250506020611dc185828601611bc5565b9150509250929050565b600060208284031215611de157611de0611b72565b5b6000611def84828501611d0c565b91505092915050565b600080fd5b600080fd5b6000601f19601f8301169050919050565b7f4e487b7100000000000000000000000000000000000000000000000000000000600052604160045260246000fd5b611e4b82611e02565b810181811067ffffffffffffffff82111715611e6a57611e69611e13565b5b80604052505050565b6000611e7d611b68565b9050611e898282611e42565b919050565b600067ffffffffffffffff821115611ea957611ea8611e13565b5b611eb282611e02565b9050602081019050919050565b82818337600083830152505050565b6000611ee1611edc84611e8e565b611e73565b905082815260208101848484011115611efd57611efc611dfd565b5b611f08848285611ebf565b509392505050565b600082601f830112611f2557611f24611df8565b5b8135611f35848260208601611ece565b91505092915050565b600080600080600060a08688031215611f5a57611f59611b72565b5b6000611f6888828901611d0c565b9550506020611f7988828901611d0c565b9450506040611f8a88828901611bc5565b9350506060611f9b88828901611d0c565b925050608086013567ffffffffffffffff811115611fbc57611fbb611b77565b5b611fc888828901611f10565b9150509295509295909350565b60008115159050919050565b611fea81611fd5565b82525050565b60006020820190506120056000830184611fe1565b92915050565b7f4e487b7100000000000000000000000000000000000000000000000000000000600052601160045260246000fd5b600061204582611c1a565b915061205083611c1a565b925082820261205e81611c1a565b915082820484148315176120755761207461200b565b5b5092915050565b7f4e487b7100000000000000000000000000000000000000000000000000000000600052601260045260246000fd5b60006120b682611c1a565b91506120c183611c1a565b9250826120d1576120d061207c565b5b828204905092915050565b600082825260208201905092915050565b7f6c656e64696e672062616c616e63652063616e6e6f7420626520300000000000600082015250565b6000612123601b836120dc565b915061212e826120ed565b602082019050919050565b6000602082019050818103600083015261215281612116565b9050919050565b7f7769746864726177616c2062616c616e63652063616e6e6f74206265206c657360008201527f73207468616e206c656e64696e672062616c616e636500000000000000000000602082015250565b60006121b56036836120dc565b91506121c082612159565b604082019050919050565b600060208201905081810360008301526121e4816121a8565b9050919050565b60006040820190506122006000830185611d61565b61220d6020830184611c24565b9392505050565b61221d81611fd5565b811461222857600080fd5b50565b60008151905061223a81612214565b92915050565b60006020828403121561225657612255611b72565b5b60006122648482850161222b565b91505092915050565b600061227882611c1a565b915061228383611c1a565b925082820390508181111561229b5761229a61200b565b5b92915050565b7f4e487b7100000000000000000000000000000000000000000000000000000000600052603260045260246000fd5b60006122db82611c1a565b91507fffffffffffffffffffffffffffffffffffffffffffffffffffffffffffffffff820361230d5761230c61200b565b5b600182019050919050565b600081519050919050565b7f4e487b7100000000000000000000000000000000000000000000000000000000600052602260045260246000fd5b6000600282049050600182168061236a57607f821691505b60208210810361237d5761237c612323565b5b50919050565b60008190508160005260206000209050919050565b60006020601f8301049050919050565b600082821b905092915050565b6000600883026123e57fffffffffffffffffffffffffffffffffffffffffffffffffffffffffffffffff826123a8565b6123ef86836123a8565b95508019841693508086168417925050509392505050565b600061242261241d61241884611c1a565b611c4e565b611c1a565b9050919050565b6000819050919050565b61243c83612407565b61245061244882612429565b8484546123b5565b825550505050565b600090565b612465612458565b612470818484612433565b505050565b5b818110156124945761248960008261245d565b600181019050612476565b5050565b601f8211156124d9576124aa81612383565b6124b384612398565b810160208510156124c2578190505b6124d66124ce85612398565b830182612475565b50505b505050565b600082821c905092915050565b60006124fc600019846008026124de565b1980831691505092915050565b600061251583836124eb565b9150826002028217905092915050565b61252e82612318565b67ffffffffffffffff81111561254757612546611e13565b5b6125518254612352565b61255c828285612498565b600060209050601f83116001811461258f576000841561257d578287015190505b6125878582612509565b8655506125ef565b601f19841661259d86612383565b60005b828110156125c5578489015182556001820191506020850194506020810190506125a0565b868310156125e257848901516125de601f8916826124eb565b8355505b6001600288020188555050505b505050505050565b60005b838110156126155780820151818401526020810190506125fa565b60008484015250505050565b600061262c82612318565b61263681856120dc565b93506126468185602086016125f7565b61264f81611e02565b840191505092915050565b600060608201905061266f6000830186611d61565b61267c6020830185611c24565b818103604083015261268e8184612621565b9050949350505050565b60006126a382611c1a565b91506126ae83611c1a565b92508282019050808211156126c6576126c561200b565b5b92915050565b600069ffffffffffffffffffff82169050919050565b6126eb816126cc565b81146126f657600080fd5b50565b600081519050612708816126e2565b92915050565b6000819050919050565b6127218161270e565b811461272c57600080fd5b50565b60008151905061273e81612718565b92915050565b60008151905061275381611cf5565b92915050565b600080600080600060a0868803121561277557612774611b72565b5b6000612783888289016126f9565b95505060206127948882890161272f565b94505060406127a588828901612744565b93505060606127b688828901612744565b92505060806127c7888289016126f9565b9150509295509295909350565b7f4f776e61626c653a206e6577206f776e657220697320746865207a65726f206160008201527f6464726573730000000000000000000000000000000000000000000000000000602082015250565b60006128306026836120dc565b915061283b826127d4565b604082019050919050565b6000602082019050818103600083015261285f81612823565b9050919050565b7f616d6f756e742063616e6e6f7420626520300000000000000000000000000000600082015250565b600061289c6012836120dc565b91506128a782612866565b602082019050919050565b600060208201905081810360008301526128cb8161288f565b9050919050565b60006060820190506128e76000830186611d61565b6128f46020830185611d61565b6129016040830184611c24565b949350505050565b7f4f776e61626c653a2063616c6c6572206973206e6f7420746865206f776e6572600082015250565b600061293f6020836120dc565b915061294a82612909565b602082019050919050565b6000602082019050818103600083015261296e81612932565b905091905056fea264697066735822122053bebf8978ee4acce65dab1cada012a85e36609043b0176a4dc0594623367dac64736f6c63430008140033",
    "linkReferences": {},
    "deployedLinkReferences": {}
}