{
    "_format": "hh-sol-artifact-1",
    "contractName": "RupyaXToken",
    "sourceName": "contracts/RupyaXToken.sol",
    "abi": [
        {
            "inputs": [
                {
                    "internalType": "address",
                    "name": "_sfHost",
                    "type": "address"
                }
            ],
            "stateMutability": "nonpayable",
            "type": "constructor"
        },
        {
            "anonymous": false,
            "inputs": [
                {
                    "indexed": true,
                    "internalType": "address",
                    "name": "_contractAddress",
                    "type": "address"
                }
            ],
            "name": "NewSuperToken",
            "type": "event"
        },
        {
            "inputs": [
                {
                    "internalType": "contract ERC20",
                    "name": "underlyingToken",
                    "type": "address"
                }
            ],
            "name": "createRupyaXToken",
            "outputs": [
                {
                    "internalType": "contract ISuperToken",
                    "name": "mkrSuperToken",
                    "type": "address"
                }
            ],
            "stateMutability": "nonpayable",
            "type": "function"
        },
        {
            "inputs": [
                {
                    "internalType": "address",
                    "name": "underlyingToken",
                    "type": "address"
                }
            ],
            "name": "getSuperToken",
            "outputs": [
                {
                    "internalType": "address",
                    "name": "",
                    "type": "address"
                }
            ],
            "stateMutability": "view",
            "type": "function"
        },
        {
            "inputs": [
                {
                    "internalType": "address",
                    "name": "",
                    "type": "address"
                }
            ],
            "name": "superTokenRegistry",
            "outputs": [
                {
                    "internalType": "address",
                    "name": "",
                    "type": "address"
                }
            ],
            "stateMutability": "view",
            "type": "function"
        }
    ],
    "bytecode": "0x608060405234801561001057600080fd5b50604051610c5c380380610c5c833981810160405281019061003291906100dc565b80600160006101000a81548173ffffffffffffffffffffffffffffffffffffffff021916908373ffffffffffffffffffffffffffffffffffffffff16021790555050610109565b600080fd5b600073ffffffffffffffffffffffffffffffffffffffff82169050919050565b60006100a98261007e565b9050919050565b6100b98161009e565b81146100c457600080fd5b50565b6000815190506100d6816100b0565b92915050565b6000602082840312156100f2576100f1610079565b5b6000610100848285016100c7565b91505092915050565b610b44806101186000396000f3fe608060405234801561001057600080fd5b50600436106100415760003560e01c80630c08a5c4146100465780631461fd2014610076578063a8866adc146100a6575b600080fd5b610060600480360381019061005b91906104fa565b6100d6565b60405161006d9190610536565b60405180910390f35b610090600480360381019061008b919061058f565b61013e565b60405161009d919061061b565b60405180910390f35b6100c060048036038101906100bb91906104fa565b610455565b6040516100cd9190610536565b60405180910390f35b60008060008373ffffffffffffffffffffffffffffffffffffffff1673ffffffffffffffffffffffffffffffffffffffff16815260200190815260200160002060009054906101000a900473ffffffffffffffffffffffffffffffffffffffff169050919050565b6000808273ffffffffffffffffffffffffffffffffffffffff166306fdde036040518163ffffffff1660e01b8152600401600060405180830381865afa15801561018c573d6000803e3d6000fd5b505050506040513d6000823e3d601f19601f820116820180604052508101906101b59190610797565b6040516020016101c59190610873565b604051602081830303815290604052905060008373ffffffffffffffffffffffffffffffffffffffff166395d89b416040518163ffffffff1660e01b8152600401600060405180830381865afa158015610223573d6000803e3d6000fd5b505050506040513d6000823e3d601f19601f8201168201806040525081019061024c9190610797565b60405160200161025c91906108e1565b60405160208183030381529060405290506000600160009054906101000a900473ffffffffffffffffffffffffffffffffffffffff1673ffffffffffffffffffffffffffffffffffffffff1663731aed6e6040518163ffffffff1660e01b8152600401602060405180830381865afa1580156102dc573d6000803e3d6000fd5b505050506040513d601f19601f820116820180604052508101906103009190610941565b905060008173ffffffffffffffffffffffffffffffffffffffff1663431f148187600287876040518563ffffffff1660e01b81526004016103449493929190610a50565b6020604051808303816000875af1158015610363573d6000803e3d6000fd5b505050506040513d601f19601f820116820180604052508101906103879190610ae1565b9050806000808873ffffffffffffffffffffffffffffffffffffffff1673ffffffffffffffffffffffffffffffffffffffff16815260200190815260200160002060006101000a81548173ffffffffffffffffffffffffffffffffffffffff021916908373ffffffffffffffffffffffffffffffffffffffff1602179055508073ffffffffffffffffffffffffffffffffffffffff167fd284ad8e663743791f3ad0948eb7be0b1ee771abdc1fbd79aee16cd09347abbc60405160405180910390a280945050505050919050565b60006020528060005260406000206000915054906101000a900473ffffffffffffffffffffffffffffffffffffffff1681565b6000604051905090565b600080fd5b600080fd5b600073ffffffffffffffffffffffffffffffffffffffff82169050919050565b60006104c78261049c565b9050919050565b6104d7816104bc565b81146104e257600080fd5b50565b6000813590506104f4816104ce565b92915050565b6000602082840312156105105761050f610492565b5b600061051e848285016104e5565b91505092915050565b610530816104bc565b82525050565b600060208201905061054b6000830184610527565b92915050565b600061055c826104bc565b9050919050565b61056c81610551565b811461057757600080fd5b50565b60008135905061058981610563565b92915050565b6000602082840312156105a5576105a4610492565b5b60006105b38482850161057a565b91505092915050565b6000819050919050565b60006105e16105dc6105d78461049c565b6105bc565b61049c565b9050919050565b60006105f3826105c6565b9050919050565b6000610605826105e8565b9050919050565b610615816105fa565b82525050565b6000602082019050610630600083018461060c565b92915050565b600080fd5b600080fd5b6000601f19601f8301169050919050565b7f4e487b7100000000000000000000000000000000000000000000000000000000600052604160045260246000fd5b61068982610640565b810181811067ffffffffffffffff821117156106a8576106a7610651565b5b80604052505050565b60006106bb610488565b90506106c78282610680565b919050565b600067ffffffffffffffff8211156106e7576106e6610651565b5b6106f082610640565b9050602081019050919050565b60005b8381101561071b578082015181840152602081019050610700565b60008484015250505050565b600061073a610735846106cc565b6106b1565b9050828152602081018484840111156107565761075561063b565b5b6107618482856106fd565b509392505050565b600082601f83011261077e5761077d610636565b5b815161078e848260208601610727565b91505092915050565b6000602082840312156107ad576107ac610492565b5b600082015167ffffffffffffffff8111156107cb576107ca610497565b5b6107d784828501610769565b91505092915050565b600081905092915050565b7f5275707961200000000000000000000000000000000000000000000000000000600082015250565b60006108216006836107e0565b915061082c826107eb565b600682019050919050565b600081519050919050565b600061084d82610837565b61085781856107e0565b93506108678185602086016106fd565b80840191505092915050565b600061087e82610814565b915061088a8284610842565b915081905092915050565b7f7800000000000000000000000000000000000000000000000000000000000000600082015250565b60006108cb6001836107e0565b91506108d682610895565b600182019050919050565b60006108ed8284610842565b91506108f8826108be565b915081905092915050565b600061090e826104bc565b9050919050565b61091e81610903565b811461092957600080fd5b50565b60008151905061093b81610915565b92915050565b60006020828403121561095757610956610492565b5b60006109658482850161092c565b91505092915050565b6000610979826105e8565b9050919050565b6109898161096e565b82525050565b7f4e487b7100000000000000000000000000000000000000000000000000000000600052602160045260246000fd5b600381106109cf576109ce61098f565b5b50565b60008190506109e0826109be565b919050565b60006109f0826109d2565b9050919050565b610a00816109e5565b82525050565b600082825260208201905092915050565b6000610a2282610837565b610a2c8185610a06565b9350610a3c8185602086016106fd565b610a4581610640565b840191505092915050565b6000608082019050610a656000830187610980565b610a7260208301866109f7565b8181036040830152610a848185610a17565b90508181036060830152610a988184610a17565b905095945050505050565b6000610aae826104bc565b9050919050565b610abe81610aa3565b8114610ac957600080fd5b50565b600081519050610adb81610ab5565b92915050565b600060208284031215610af757610af6610492565b5b6000610b0584828501610acc565b9150509291505056fea2646970667358221220a6db548deb87dbb167210aa4348b5af8211d49ade19be8cb86daa440a8a82d9864736f6c63430008140033",
    "linkReferences": {},
    "deployedLinkReferences": {}
}