{
    "_format": "hh-sol-artifact-1",
    "contractName": "Stake",
    "sourceName": "contracts/Stake.sol",
    "abi": [
        {
            "inputs": [
                {
                    "internalType": "address",
                    "name": "_usdcTokenAddress",
                    "type": "address"
                }
            ],
            "stateMutability": "nonpayable",
            "type": "constructor"
        },
        {
            "anonymous": false,
            "inputs": [
                {
                    "indexed": true,
                    "internalType": "bytes32",
                    "name": "id",
                    "type": "bytes32"
                }
            ],
            "name": "ChainlinkCancelled",
            "type": "event"
        },
        {
            "anonymous": false,
            "inputs": [
                {
                    "indexed": true,
                    "internalType": "bytes32",
                    "name": "id",
                    "type": "bytes32"
                }
            ],
            "name": "ChainlinkFulfilled",
            "type": "event"
        },
        {
            "anonymous": false,
            "inputs": [
                {
                    "indexed": true,
                    "internalType": "bytes32",
                    "name": "id",
                    "type": "bytes32"
                }
            ],
            "name": "ChainlinkRequested",
            "type": "event"
        },
        {
            "anonymous": false,
            "inputs": [
                {
                    "indexed": true,
                    "internalType": "address",
                    "name": "previousOwner",
                    "type": "address"
                },
                {
                    "indexed": true,
                    "internalType": "address",
                    "name": "newOwner",
                    "type": "address"
                }
            ],
            "name": "OwnershipTransferred",
            "type": "event"
        },
        {
            "inputs": [
                {
                    "internalType": "address",
                    "name": "token",
                    "type": "address"
                }
            ],
            "name": "addAllowedTokens",
            "outputs": [],
            "stateMutability": "nonpayable",
            "type": "function"
        },
        {
            "inputs": [
                {
                    "internalType": "address",
                    "name": "",
                    "type": "address"
                }
            ],
            "name": "addressToUnlockedData",
            "outputs": [
                {
                    "internalType": "uint256",
                    "name": "unlockedBalance",
                    "type": "uint256"
                }
            ],
            "stateMutability": "view",
            "type": "function"
        },
        {
            "inputs": [
                {
                    "internalType": "uint256",
                    "name": "_amount",
                    "type": "uint256"
                },
                {
                    "internalType": "uint256",
                    "name": "index",
                    "type": "uint256"
                }
            ],
            "name": "deductAmount",
            "outputs": [],
            "stateMutability": "nonpayable",
            "type": "function"
        },
        {
            "inputs": [
                {
                    "internalType": "address",
                    "name": "",
                    "type": "address"
                },
                {
                    "internalType": "uint256",
                    "name": "",
                    "type": "uint256"
                }
            ],
            "name": "entriesForUser",
            "outputs": [
                {
                    "internalType": "uint256",
                    "name": "",
                    "type": "uint256"
                }
            ],
            "stateMutability": "view",
            "type": "function"
        },
        {
            "inputs": [
                {
                    "internalType": "address",
                    "name": "token",
                    "type": "address"
                }
            ],
            "name": "getTokenEthPrice",
            "outputs": [
                {
                    "internalType": "uint256",
                    "name": "",
                    "type": "uint256"
                }
            ],
            "stateMutability": "view",
            "type": "function"
        },
        {
            "inputs": [],
            "name": "getUnlockedTokens",
            "outputs": [
                {
                    "components": [
                        {
                            "internalType": "uint256",
                            "name": "unlockedBalance",
                            "type": "uint256"
                        },
                        {
                            "internalType": "uint256[]",
                            "name": "unlockedAmountList",
                            "type": "uint256[]"
                        },
                        {
                            "internalType": "uint256[]",
                            "name": "unlockedIndexList",
                            "type": "uint256[]"
                        }
                    ],
                    "internalType": "struct Stake.unlockedData",
                    "name": "",
                    "type": "tuple"
                }
            ],
            "stateMutability": "nonpayable",
            "type": "function"
        },
        {
            "inputs": [
                {
                    "internalType": "address",
                    "name": "user",
                    "type": "address"
                },
                {
                    "internalType": "address",
                    "name": "token",
                    "type": "address"
                }
            ],
            "name": "getUserStakeingBalanceEthValue",
            "outputs": [
                {
                    "internalType": "uint256",
                    "name": "",
                    "type": "uint256"
                }
            ],
            "stateMutability": "view",
            "type": "function"
        },
        {
            "inputs": [
                {
                    "internalType": "address",
                    "name": "user",
                    "type": "address"
                },
                {
                    "internalType": "address",
                    "name": "token",
                    "type": "address"
                }
            ],
            "name": "getUserTokenValue",
            "outputs": [
                {
                    "internalType": "uint256",
                    "name": "",
                    "type": "uint256"
                }
            ],
            "stateMutability": "view",
            "type": "function"
        },
        {
            "inputs": [
                {
                    "internalType": "address",
                    "name": "user",
                    "type": "address"
                }
            ],
            "name": "getUserTotalValue",
            "outputs": [
                {
                    "internalType": "uint256",
                    "name": "",
                    "type": "uint256"
                }
            ],
            "stateMutability": "view",
            "type": "function"
        },
        {
            "inputs": [],
            "name": "getWithdrawbleTokens",
            "outputs": [
                {
                    "internalType": "uint256",
                    "name": "",
                    "type": "uint256"
                }
            ],
            "stateMutability": "view",
            "type": "function"
        },
        {
            "inputs": [],
            "name": "issueTokens",
            "outputs": [],
            "stateMutability": "nonpayable",
            "type": "function"
        },
        {
            "inputs": [],
            "name": "owner",
            "outputs": [
                {
                    "internalType": "address",
                    "name": "",
                    "type": "address"
                }
            ],
            "stateMutability": "view",
            "type": "function"
        },
        {
            "inputs": [],
            "name": "renounceOwnership",
            "outputs": [],
            "stateMutability": "nonpayable",
            "type": "function"
        },
        {
            "inputs": [
                {
                    "internalType": "address",
                    "name": "token",
                    "type": "address"
                },
                {
                    "internalType": "address",
                    "name": "priceFeed",
                    "type": "address"
                }
            ],
            "name": "setPriceFeedContract",
            "outputs": [],
            "stateMutability": "nonpayable",
            "type": "function"
        },
        {
            "inputs": [
                {
                    "internalType": "uint256",
                    "name": "_amount",
                    "type": "uint256"
                },
                {
                    "internalType": "address",
                    "name": "token",
                    "type": "address"
                },
                {
                    "internalType": "uint256",
                    "name": "numberOfDays",
                    "type": "uint256"
                }
            ],
            "name": "stakeTokens",
            "outputs": [],
            "stateMutability": "nonpayable",
            "type": "function"
        },
        {
            "inputs": [
                {
                    "internalType": "uint256",
                    "name": "",
                    "type": "uint256"
                }
            ],
            "name": "stakeers",
            "outputs": [
                {
                    "internalType": "address",
                    "name": "",
                    "type": "address"
                }
            ],
            "stateMutability": "view",
            "type": "function"
        },
        {
            "inputs": [
                {
                    "internalType": "address",
                    "name": "",
                    "type": "address"
                },
                {
                    "internalType": "address",
                    "name": "",
                    "type": "address"
                }
            ],
            "name": "stakeingBalance",
            "outputs": [
                {
                    "internalType": "uint256",
                    "name": "",
                    "type": "uint256"
                }
            ],
            "stateMutability": "view",
            "type": "function"
        },
        {
            "inputs": [],
            "name": "timeNow",
            "outputs": [
                {
                    "internalType": "uint256",
                    "name": "",
                    "type": "uint256"
                }
            ],
            "stateMutability": "view",
            "type": "function"
        },
        {
            "inputs": [
                {
                    "internalType": "address",
                    "name": "token",
                    "type": "address"
                }
            ],
            "name": "tokenIsAllowed",
            "outputs": [
                {
                    "internalType": "bool",
                    "name": "",
                    "type": "bool"
                }
            ],
            "stateMutability": "view",
            "type": "function"
        },
        {
            "inputs": [
                {
                    "internalType": "address",
                    "name": "",
                    "type": "address"
                }
            ],
            "name": "tokenPriceFeedMapping",
            "outputs": [
                {
                    "internalType": "address",
                    "name": "",
                    "type": "address"
                }
            ],
            "stateMutability": "view",
            "type": "function"
        },
        {
            "inputs": [
                {
                    "internalType": "address",
                    "name": "newOwner",
                    "type": "address"
                }
            ],
            "name": "transferOwnership",
            "outputs": [],
            "stateMutability": "nonpayable",
            "type": "function"
        },
        {
            "inputs": [
                {
                    "internalType": "address",
                    "name": "",
                    "type": "address"
                }
            ],
            "name": "uniqueTokensLent",
            "outputs": [
                {
                    "internalType": "uint256",
                    "name": "",
                    "type": "uint256"
                }
            ],
            "stateMutability": "view",
            "type": "function"
        },
        {
            "inputs": [],
            "name": "usdcToken",
            "outputs": [
                {
                    "internalType": "contract IERC20",
                    "name": "",
                    "type": "address"
                }
            ],
            "stateMutability": "view",
            "type": "function"
        },
        {
            "inputs": [
                {
                    "internalType": "address",
                    "name": "",
                    "type": "address"
                },
                {
                    "internalType": "uint256",
                    "name": "",
                    "type": "uint256"
                }
            ],
            "name": "userLockedTimeMapping",
            "outputs": [
                {
                    "internalType": "uint256",
                    "name": "",
                    "type": "uint256"
                }
            ],
            "stateMutability": "view",
            "type": "function"
        },
        {
            "inputs": [
                {
                    "internalType": "uint256",
                    "name": "_amount",
                    "type": "uint256"
                },
                {
                    "internalType": "address",
                    "name": "token",
                    "type": "address"
                }
            ],
            "name": "withdrawTokens",
            "outputs": [],
            "stateMutability": "nonpayable",
            "type": "function"
        }
    ],
    "bytecode": "0x608060405260016004553480156200001657600080fd5b50604051620029e2380380620029e283398181016040528101906200003c9190620001dc565b6200005c62000050620000a460201b60201c565b620000ac60201b60201c565b80600f60006101000a81548173ffffffffffffffffffffffffffffffffffffffff021916908373ffffffffffffffffffffffffffffffffffffffff160217905550506200020e565b600033905090565b6000600660009054906101000a900473ffffffffffffffffffffffffffffffffffffffff16905081600660006101000a81548173ffffffffffffffffffffffffffffffffffffffff021916908373ffffffffffffffffffffffffffffffffffffffff1602179055508173ffffffffffffffffffffffffffffffffffffffff168173ffffffffffffffffffffffffffffffffffffffff167f8be0079c531659141344cd1fd0a4f28419497f9722a3daafe3b4186f6b6457e060405160405180910390a35050565b600080fd5b600073ffffffffffffffffffffffffffffffffffffffff82169050919050565b6000620001a48262000177565b9050919050565b620001b68162000197565b8114620001c257600080fd5b50565b600081519050620001d681620001ab565b92915050565b600060208284031215620001f557620001f462000172565b5b60006200020584828501620001c5565b91505092915050565b6127c4806200021e6000396000f3fe608060405234801561001057600080fd5b50600436106101735760003560e01c806360ab5852116100de578063c627feb211610097578063dd5b846711610071578063dd5b846714610470578063df00018d146104a0578063e74988d8146104d0578063f2fde38b146104ee57610173565b8063c627feb214610406578063cec534d614610436578063d95660be1461045257610173565b806360ab58521461036c578063715018a6146103765780638285d28e14610380578063877dd39d1461039c5780638da5cb5b146103b8578063af3f5e22146103d657610173565b80633572e00d116101305780633572e00d14610272578063398d92bb146102a257806339a695ea146102be5780633d668248146102ee578063468178211461031e57806357ec516c1461034e57610173565b806311eac85514610178578063171e44ea1461019657806326d2ad5a146101b257806327927b3e146101e2578063352296eb146102125780633560622414610242575b600080fd5b61018061050a565b60405161018d9190611da2565b60405180910390f35b6101b060048036038101906101ab9190611e00565b610530565b005b6101cc60048036038101906101c79190611e63565b61059e565b6040516101d99190611eb2565b60405180910390f35b6101fc60048036038101906101f79190611e00565b6105cf565b6040516102099190611edc565b60405180910390f35b61022c60048036038101906102279190611ef7565b610602565b6040516102399190611edc565b60405180910390f35b61025c60048036038101906102579190611e63565b610641565b6040516102699190611eb2565b60405180910390f35b61028c60048036038101906102879190611f24565b610666565b6040516102999190611eb2565b60405180910390f35b6102bc60048036038101906102b79190611f64565b6106ed565b005b6102d860048036038101906102d39190611e00565b610af8565b6040516102e59190611eb2565b60405180910390f35b61030860048036038101906103039190611f24565b610b16565b6040516103159190611eb2565b60405180910390f35b61033860048036038101906103339190611e00565b610c13565b6040516103459190611eb2565b60405180910390f35b610356610c2b565b6040516103639190611eb2565b60405180910390f35b610374610dbc565b005b61037e610ed7565b005b61039a60048036038101906103959190611fa4565b610eeb565b005b6103b660048036038101906103b19190611f24565b610f3b565b005b6103c0610fc5565b6040516103cd9190611edc565b60405180910390f35b6103f060048036038101906103eb9190611e00565b610fef565b6040516103fd9190611eb2565b60405180910390f35b610420600480360381019061041b9190611f24565b6110c1565b60405161042d9190611eb2565b60405180910390f35b610450600480360381019061044b9190611fe4565b6110e6565b005b61045a6114f9565b6040516104679190611eb2565b60405180910390f35b61048a60048036038101906104859190611e00565b6114ff565b6040516104979190612052565b60405180910390f35b6104ba60048036038101906104b59190611e00565b6115ad565b6040516104c79190611eb2565b60405180910390f35b6104d86116a7565b6040516104e59190612182565b60405180910390f35b61050860048036038101906105039190611e00565b6119b1565b005b600f60009054906101000a900473ffffffffffffffffffffffffffffffffffffffff1681565b610538611a34565b600c819080600181540180825580915050600190039060005260206000200160009091909190916101000a81548173ffffffffffffffffffffffffffffffffffffffff021916908373ffffffffffffffffffffffffffffffffffffffff16021790555050565b601060205281600052604060002081815481106105ba57600080fd5b90600052602060002001600091509150505481565b600a6020528060005260406000206000915054906101000a900473ffffffffffffffffffffffffffffffffffffffff1681565b6007818154811061061257600080fd5b906000526020600020016000915054906101000a900473ffffffffffffffffffffffffffffffffffffffff1681565b600b602052816000526040600020602052806000526040600020600091509150505481565b6000600860008373ffffffffffffffffffffffffffffffffffffffff1673ffffffffffffffffffffffffffffffffffffffff16815260200190815260200160002060008473ffffffffffffffffffffffffffffffffffffffff1673ffffffffffffffffffffffffffffffffffffffff16815260200190815260200160002054905092915050565b6000600860008373ffffffffffffffffffffffffffffffffffffffff1673ffffffffffffffffffffffffffffffffffffffff16815260200190815260200160002060003373ffffffffffffffffffffffffffffffffffffffff1673ffffffffffffffffffffffffffffffffffffffff16815260200190815260200160002054905060006107786116a7565b905060008160000151116107c1576040517f08c379a00000000000000000000000000000000000000000000000000000000081526004016107b890612201565b60405180910390fd5b8381600001511015610808576040517f08c379a00000000000000000000000000000000000000000000000000000000081526004016107ff90612293565b60405180910390fd5b8273ffffffffffffffffffffffffffffffffffffffff1663a9059cbb33866040518363ffffffff1660e01b81526004016108439291906122b3565b6020604051808303816000875af1158015610862573d6000803e3d6000fd5b505050506040513d601f19601f820116820180604052508101906108869190612308565b5083826108939190612364565b600860008573ffffffffffffffffffffffffffffffffffffffff1673ffffffffffffffffffffffffffffffffffffffff16815260200190815260200160002060003373ffffffffffffffffffffffffffffffffffffffff1673ffffffffffffffffffffffffffffffffffffffff168152602001908152602001600020819055506000600860008573ffffffffffffffffffffffffffffffffffffffff1673ffffffffffffffffffffffffffffffffffffffff16815260200190815260200160002060003373ffffffffffffffffffffffffffffffffffffffff1673ffffffffffffffffffffffffffffffffffffffff1681526020019081526020016000205403610a27576001600960003373ffffffffffffffffffffffffffffffffffffffff1673ffffffffffffffffffffffffffffffffffffffff168152602001908152602001600020546109e39190612364565b600960003373ffffffffffffffffffffffffffffffffffffffff1673ffffffffffffffffffffffffffffffffffffffff168152602001908152602001600020819055505b60005b816020015151811015610af1578482602001518281518110610a4f57610a4e612398565b5b602002602001015110610a8957610a848583604001518381518110610a7757610a76612398565b5b6020026020010151610eeb565b610ade565b610ab18583604001518381518110610aa457610aa3612398565b5b6020026020010151610eeb565b81604001518181518110610ac857610ac7612398565b5b602002602001015185610adb9190612364565b94505b8080610ae9906123c7565b915050610a2a565b5050505050565b600e6020528060005260406000206000915090508060000154905081565b600080600960008573ffffffffffffffffffffffffffffffffffffffff1673ffffffffffffffffffffffffffffffffffffffff1681526020019081526020016000205411610b675760009050610c0d565b670de0b6b3a7640000610b79836115ad565b600860008573ffffffffffffffffffffffffffffffffffffffff1673ffffffffffffffffffffffffffffffffffffffff16815260200190815260200160002060008673ffffffffffffffffffffffffffffffffffffffff1673ffffffffffffffffffffffffffffffffffffffff16815260200190815260200160002054610c00919061240f565b610c0a9190612480565b90505b92915050565b60096020528060005260406000206000915090505481565b6000806000905060005b601060003373ffffffffffffffffffffffffffffffffffffffff1673ffffffffffffffffffffffffffffffffffffffff16815260200190815260200160002080549050811015610db4576000601060003373ffffffffffffffffffffffffffffffffffffffff1673ffffffffffffffffffffffffffffffffffffffff1681526020019081526020016000208281548110610cd257610cd1612398565b5b9060005260206000200154905060006013600183610cf09190612364565b81548110610d0157610d00612398565b5b90600052602060002001549050804210158015610d615750600015156016600184610d2c9190612364565b81548110610d3d57610d3c612398565b5b90600052602060002090602091828204019190069054906101000a900460ff161515145b15610d9f576012600183610d759190612364565b81548110610d8657610d85612398565b5b906000526020600020015484610d9c91906124b1565b93505b50508080610dac906123c7565b915050610c35565b508091505090565b610dc4611a34565b60005b600780549050811015610ed457600060078281548110610dea57610de9612398565b5b9060005260206000200160009054906101000a900473ffffffffffffffffffffffffffffffffffffffff169050600f60009054906101000a900473ffffffffffffffffffffffffffffffffffffffff1673ffffffffffffffffffffffffffffffffffffffff1663a9059cbb82610e5f84610fef565b6040518363ffffffff1660e01b8152600401610e7c9291906122b3565b6020604051808303816000875af1158015610e9b573d6000803e3d6000fd5b505050506040513d601f19601f82011682018060405250810190610ebf9190612308565b50508080610ecc906123c7565b915050610dc7565b50565b610edf611a34565b610ee96000611ab2565b565b8160128281548110610f0057610eff612398565b5b9060005260206000200154610f159190612364565b60128281548110610f2957610f28612398565b5b90600052602060002001819055505050565b610f43611a34565b80600a60008473ffffffffffffffffffffffffffffffffffffffff1673ffffffffffffffffffffffffffffffffffffffff16815260200190815260200160002060006101000a81548173ffffffffffffffffffffffffffffffffffffffff021916908373ffffffffffffffffffffffffffffffffffffffff1602179055505050565b6000600660009054906101000a900473ffffffffffffffffffffffffffffffffffffffff16905090565b600080600090506000600960008573ffffffffffffffffffffffffffffffffffffffff1673ffffffffffffffffffffffffffffffffffffffff1681526020019081526020016000205411156110b85760005b600c805490508110156110b65761109684600c838154811061106657611065612398565b5b9060005260206000200160009054906101000a900473ffffffffffffffffffffffffffffffffffffffff16610b16565b826110a191906124b1565b915080806110ae906123c7565b915050611041565b505b80915050919050565b6008602052816000526040600020602052806000526040600020600091509150505481565b60008311611129576040517f08c379a000000000000000000000000000000000000000000000000000000000815260040161112090612531565b60405180910390fd5b611132826114ff565b156114f4576111413383611b78565b8173ffffffffffffffffffffffffffffffffffffffff166323b872dd3330866040518463ffffffff1660e01b815260040161117e93929190612551565b6020604051808303816000875af115801561119d573d6000803e3d6000fd5b505050506040513d601f19601f820116820180604052508101906111c19190612308565b5082600860008473ffffffffffffffffffffffffffffffffffffffff1673ffffffffffffffffffffffffffffffffffffffff16815260200190815260200160002060003373ffffffffffffffffffffffffffffffffffffffff1673ffffffffffffffffffffffffffffffffffffffff1681526020019081526020016000205461124a91906124b1565b600860008473ffffffffffffffffffffffffffffffffffffffff1673ffffffffffffffffffffffffffffffffffffffff16815260200190815260200160002060003373ffffffffffffffffffffffffffffffffffffffff1673ffffffffffffffffffffffffffffffffffffffff168152602001908152602001600020819055506011339080600181540180825580915050600190039060005260206000200160009091909190916101000a81548173ffffffffffffffffffffffffffffffffffffffff021916908373ffffffffffffffffffffffffffffffffffffffff160217905550601283908060018154018082558091505060019003906000526020600020016000909190919091505560136201518082611367919061240f565b4261137291906124b1565b90806001815401808255809150506001900390600052602060002001600090919091909150556016600090806001815401808255809150506001900390600052602060002090602091828204019190069091909190916101000a81548160ff021916908315150217905550601060003373ffffffffffffffffffffffffffffffffffffffff1673ffffffffffffffffffffffffffffffffffffffff16815260200190815260200160002060118054905090806001815401808255809150506001900390600052602060002001600090919091909150556001600960003373ffffffffffffffffffffffffffffffffffffffff1673ffffffffffffffffffffffffffffffffffffffff16815260200190815260200160002054036114f3576007339080600181540180825580915050600190039060005260206000200160009091909190916101000a81548173ffffffffffffffffffffffffffffffffffffffff021916908373ffffffffffffffffffffffffffffffffffffffff1602179055505b5b505050565b600d5481565b600080600090505b600c805490508110156115a2578273ffffffffffffffffffffffffffffffffffffffff16600c828154811061153f5761153e612398565b5b9060005260206000200160009054906101000a900473ffffffffffffffffffffffffffffffffffffffff1673ffffffffffffffffffffffffffffffffffffffff160361158f5760019150506115a8565b808061159a906123c7565b915050611507565b50600090505b919050565b600080600a60008473ffffffffffffffffffffffffffffffffffffffff1673ffffffffffffffffffffffffffffffffffffffff16815260200190815260200160002060009054906101000a900473ffffffffffffffffffffffffffffffffffffffff169050600081905060008060008060008573ffffffffffffffffffffffffffffffffffffffff1663feaf968c6040518163ffffffff1660e01b815260040160a060405180830381865afa15801561166a573d6000803e3d6000fd5b505050506040513d601f19601f8201168201806040525081019061168e9190612615565b9450945094509450945083975050505050505050919050565b6116af611c98565b6000606080601490805190602001906116c9929190611cb9565b50606080601590805190602001906116e2929190611cb9565b5060005b601060003373ffffffffffffffffffffffffffffffffffffffff1673ffffffffffffffffffffffffffffffffffffffff168152602001908152602001600020805490508110156118ed576000601060003373ffffffffffffffffffffffffffffffffffffffff1673ffffffffffffffffffffffffffffffffffffffff168152602001908152602001600020828154811061178357611782612398565b5b90600052602060002001549050600060136001836117a19190612364565b815481106117b2576117b1612398565b5b9060005260206000200154905080421015801561181257506000151560166001846117dd9190612364565b815481106117ee576117ed612398565b5b90600052602060002090602091828204019190069054906101000a900460ff161515145b156118d85760126001836118269190612364565b8154811061183757611836612398565b5b90600052602060002001548661184d91906124b1565b9550601460018361185e9190612364565b9080600181540180825580915050600190039060005260206000200160009091909190915055601560126001846118959190612364565b815481106118a6576118a5612398565b5b906000526020600020015490806001815401808255809150506001900390600052602060002001600090919091909150555b505080806118e5906123c7565b9150506116e6565b506040518060600160405280848152602001601580548060200260200160405190810160405280929190818152602001828054801561194b57602002820191906000526020600020905b815481526020019060010190808311611937575b5050505050815260200160148054806020026020016040519081016040528092919081815260200182805480156119a157602002820191906000526020600020905b81548152602001906001019080831161198d575b5050505050815250935050505090565b6119b9611a34565b600073ffffffffffffffffffffffffffffffffffffffff168173ffffffffffffffffffffffffffffffffffffffff1603611a28576040517f08c379a0000000000000000000000000000000000000000000000000000000008152600401611a1f90612702565b60405180910390fd5b611a3181611ab2565b50565b611a3c611c90565b73ffffffffffffffffffffffffffffffffffffffff16611a5a610fc5565b73ffffffffffffffffffffffffffffffffffffffff1614611ab0576040517f08c379a0000000000000000000000000000000000000000000000000000000008152600401611aa79061276e565b60405180910390fd5b565b6000600660009054906101000a900473ffffffffffffffffffffffffffffffffffffffff16905081600660006101000a81548173ffffffffffffffffffffffffffffffffffffffff021916908373ffffffffffffffffffffffffffffffffffffffff1602179055508173ffffffffffffffffffffffffffffffffffffffff168173ffffffffffffffffffffffffffffffffffffffff167f8be0079c531659141344cd1fd0a4f28419497f9722a3daafe3b4186f6b6457e060405160405180910390a35050565b6000600860008373ffffffffffffffffffffffffffffffffffffffff1673ffffffffffffffffffffffffffffffffffffffff16815260200190815260200160002060008473ffffffffffffffffffffffffffffffffffffffff1673ffffffffffffffffffffffffffffffffffffffff1681526020019081526020016000205411611c8c576001600960008473ffffffffffffffffffffffffffffffffffffffff1673ffffffffffffffffffffffffffffffffffffffff16815260200190815260200160002054611c4891906124b1565b600960008473ffffffffffffffffffffffffffffffffffffffff1673ffffffffffffffffffffffffffffffffffffffff168152602001908152602001600020819055505b5050565b600033905090565b60405180606001604052806000815260200160608152602001606081525090565b828054828255906000526020600020908101928215611cf5579160200282015b82811115611cf4578251825591602001919060010190611cd9565b5b509050611d029190611d06565b5090565b5b80821115611d1f576000816000905550600101611d07565b5090565b600073ffffffffffffffffffffffffffffffffffffffff82169050919050565b6000819050919050565b6000611d68611d63611d5e84611d23565b611d43565b611d23565b9050919050565b6000611d7a82611d4d565b9050919050565b6000611d8c82611d6f565b9050919050565b611d9c81611d81565b82525050565b6000602082019050611db76000830184611d93565b92915050565b600080fd5b6000611dcd82611d23565b9050919050565b611ddd81611dc2565b8114611de857600080fd5b50565b600081359050611dfa81611dd4565b92915050565b600060208284031215611e1657611e15611dbd565b5b6000611e2484828501611deb565b91505092915050565b6000819050919050565b611e4081611e2d565b8114611e4b57600080fd5b50565b600081359050611e5d81611e37565b92915050565b60008060408385031215611e7a57611e79611dbd565b5b6000611e8885828601611deb565b9250506020611e9985828601611e4e565b9150509250929050565b611eac81611e2d565b82525050565b6000602082019050611ec76000830184611ea3565b92915050565b611ed681611dc2565b82525050565b6000602082019050611ef16000830184611ecd565b92915050565b600060208284031215611f0d57611f0c611dbd565b5b6000611f1b84828501611e4e565b91505092915050565b60008060408385031215611f3b57611f3a611dbd565b5b6000611f4985828601611deb565b9250506020611f5a85828601611deb565b9150509250929050565b60008060408385031215611f7b57611f7a611dbd565b5b6000611f8985828601611e4e565b9250506020611f9a85828601611deb565b9150509250929050565b60008060408385031215611fbb57611fba611dbd565b5b6000611fc985828601611e4e565b9250506020611fda85828601611e4e565b9150509250929050565b600080600060608486031215611ffd57611ffc611dbd565b5b600061200b86828701611e4e565b935050602061201c86828701611deb565b925050604061202d86828701611e4e565b9150509250925092565b60008115159050919050565b61204c81612037565b82525050565b60006020820190506120676000830184612043565b92915050565b61207681611e2d565b82525050565b600081519050919050565b600082825260208201905092915050565b6000819050602082019050919050565b60006120b4838361206d565b60208301905092915050565b6000602082019050919050565b60006120d88261207c565b6120e28185612087565b93506120ed83612098565b8060005b8381101561211e57815161210588826120a8565b9750612110836120c0565b9250506001810190506120f1565b5085935050505092915050565b6000606083016000830151612143600086018261206d565b506020830151848203602086015261215b82826120cd565b9150506040830151848203604086015261217582826120cd565b9150508091505092915050565b6000602082019050818103600083015261219c818461212b565b905092915050565b600082825260208201905092915050565b7f7374616b65696e672062616c616e63652063616e6e6f74206265203000000000600082015250565b60006121eb601c836121a4565b91506121f6826121b5565b602082019050919050565b6000602082019050818103600083015261221a816121de565b9050919050565b7f7769746864726177616c2062616c616e63652063616e6e6f74206265206c657360008201527f73207468616e207374616b65696e672062616c616e6365000000000000000000602082015250565b600061227d6037836121a4565b915061228882612221565b604082019050919050565b600060208201905081810360008301526122ac81612270565b9050919050565b60006040820190506122c86000830185611ecd565b6122d56020830184611ea3565b9392505050565b6122e581612037565b81146122f057600080fd5b50565b600081519050612302816122dc565b92915050565b60006020828403121561231e5761231d611dbd565b5b600061232c848285016122f3565b91505092915050565b7f4e487b7100000000000000000000000000000000000000000000000000000000600052601160045260246000fd5b600061236f82611e2d565b915061237a83611e2d565b925082820390508181111561239257612391612335565b5b92915050565b7f4e487b7100000000000000000000000000000000000000000000000000000000600052603260045260246000fd5b60006123d282611e2d565b91507fffffffffffffffffffffffffffffffffffffffffffffffffffffffffffffffff820361240457612403612335565b5b600182019050919050565b600061241a82611e2d565b915061242583611e2d565b925082820261243381611e2d565b9150828204841483151761244a57612449612335565b5b5092915050565b7f4e487b7100000000000000000000000000000000000000000000000000000000600052601260045260246000fd5b600061248b82611e2d565b915061249683611e2d565b9250826124a6576124a5612451565b5b828204905092915050565b60006124bc82611e2d565b91506124c783611e2d565b92508282019050808211156124df576124de612335565b5b92915050565b7f616d6f756e742063616e6e6f7420626520300000000000000000000000000000600082015250565b600061251b6012836121a4565b9150612526826124e5565b602082019050919050565b6000602082019050818103600083015261254a8161250e565b9050919050565b60006060820190506125666000830186611ecd565b6125736020830185611ecd565b6125806040830184611ea3565b949350505050565b600069ffffffffffffffffffff82169050919050565b6125a781612588565b81146125b257600080fd5b50565b6000815190506125c48161259e565b92915050565b6000819050919050565b6125dd816125ca565b81146125e857600080fd5b50565b6000815190506125fa816125d4565b92915050565b60008151905061260f81611e37565b92915050565b600080600080600060a0868803121561263157612630611dbd565b5b600061263f888289016125b5565b9550506020612650888289016125eb565b945050604061266188828901612600565b935050606061267288828901612600565b9250506080612683888289016125b5565b9150509295509295909350565b7f4f776e61626c653a206e6577206f776e657220697320746865207a65726f206160008201527f6464726573730000000000000000000000000000000000000000000000000000602082015250565b60006126ec6026836121a4565b91506126f782612690565b604082019050919050565b6000602082019050818103600083015261271b816126df565b9050919050565b7f4f776e61626c653a2063616c6c6572206973206e6f7420746865206f776e6572600082015250565b60006127586020836121a4565b915061276382612722565b602082019050919050565b600060208201905081810360008301526127878161274b565b905091905056fea2646970667358221220f3c2d984f14910fc371f28e40ec18f8331ed0b52fc9730a13bb9407753295aa064736f6c63430008140033",
    "linkReferences": {},
    "deployedLinkReferences": {}
}