{
    "_format": "hh-sol-artifact-1",
    "contractName": "USDCXToken",
    "sourceName": "contracts/USDCXToken.sol",
    "abi": [
        {
            "inputs": [
                {
                    "internalType": "address",
                    "name": "_sfHost",
                    "type": "address"
                }
            ],
            "stateMutability": "nonpayable",
            "type": "constructor"
        },
        {
            "anonymous": false,
            "inputs": [
                {
                    "indexed": false,
                    "internalType": "address",
                    "name": "_contractAddress",
                    "type": "address"
                }
            ],
            "name": "NewSuperToken",
            "type": "event"
        },
        {
            "inputs": [
                {
                    "internalType": "contract ERC20",
                    "name": "mkrToken",
                    "type": "address"
                }
            ],
            "name": "createUSDCXToken",
            "outputs": [
                {
                    "internalType": "contract ISuperToken",
                    "name": "mkrSuperToken",
                    "type": "address"
                }
            ],
            "stateMutability": "nonpayable",
            "type": "function"
        },
        {
            "inputs": [
                {
                    "internalType": "contract ERC20",
                    "name": "unwrappedToken",
                    "type": "address"
                }
            ],
            "name": "getSuperToken",
            "outputs": [
                {
                    "internalType": "address",
                    "name": "superTokenAddress",
                    "type": "address"
                }
            ],
            "stateMutability": "view",
            "type": "function"
        }
    ],
    "bytecode": "0x608060405234801561001057600080fd5b50604051610b83380380610b83833981810160405281019061003291906100dc565b80600160006101000a81548173ffffffffffffffffffffffffffffffffffffffff021916908373ffffffffffffffffffffffffffffffffffffffff16021790555050610109565b600080fd5b600073ffffffffffffffffffffffffffffffffffffffff82169050919050565b60006100a98261007e565b9050919050565b6100b98161009e565b81146100c457600080fd5b50565b6000815190506100d6816100b0565b92915050565b6000602082840312156100f2576100f1610079565b5b6000610100848285016100c7565b91505092915050565b610a6b806101186000396000f3fe608060405234801561001057600080fd5b50600436106100365760003560e01c80630c08a5c41461003b578063510851151461006b575b600080fd5b6100556004803603810190610050919061048c565b61009b565b60405161006291906104c8565b60405180910390f35b6100856004803603810190610080919061048c565b610103565b6040516100929190610542565b60405180910390f35b60008060008373ffffffffffffffffffffffffffffffffffffffff1673ffffffffffffffffffffffffffffffffffffffff16815260200190815260200160002060009054906101000a900473ffffffffffffffffffffffffffffffffffffffff169050919050565b6000808273ffffffffffffffffffffffffffffffffffffffff166306fdde036040518163ffffffff1660e01b8152600401600060405180830381865afa158015610151573d6000803e3d6000fd5b505050506040513d6000823e3d601f19601f8201168201806040525081019061017a91906106be565b60405160200161018a919061079a565b604051602081830303815290604052905060008373ffffffffffffffffffffffffffffffffffffffff166395d89b416040518163ffffffff1660e01b8152600401600060405180830381865afa1580156101e8573d6000803e3d6000fd5b505050506040513d6000823e3d601f19601f8201168201806040525081019061021191906106be565b6040516020016102219190610808565b60405160208183030381529060405290506000600160009054906101000a900473ffffffffffffffffffffffffffffffffffffffff1673ffffffffffffffffffffffffffffffffffffffff1663731aed6e6040518163ffffffff1660e01b8152600401602060405180830381865afa1580156102a1573d6000803e3d6000fd5b505050506040513d601f19601f820116820180604052508101906102c59190610868565b90508073ffffffffffffffffffffffffffffffffffffffff1663431f148186600286866040518563ffffffff1660e01b81526004016103079493929190610977565b6020604051808303816000875af1158015610326573d6000803e3d6000fd5b505050506040513d601f19601f8201168201806040525081019061034a9190610a08565b9350836000808773ffffffffffffffffffffffffffffffffffffffff1673ffffffffffffffffffffffffffffffffffffffff16815260200190815260200160002060006101000a81548173ffffffffffffffffffffffffffffffffffffffff021916908373ffffffffffffffffffffffffffffffffffffffff1602179055507fd284ad8e663743791f3ad0948eb7be0b1ee771abdc1fbd79aee16cd09347abbc846040516103f891906104c8565b60405180910390a1505050919050565b6000604051905090565b600080fd5b600080fd5b600073ffffffffffffffffffffffffffffffffffffffff82169050919050565b60006104478261041c565b9050919050565b60006104598261043c565b9050919050565b6104698161044e565b811461047457600080fd5b50565b60008135905061048681610460565b92915050565b6000602082840312156104a2576104a1610412565b5b60006104b084828501610477565b91505092915050565b6104c28161043c565b82525050565b60006020820190506104dd60008301846104b9565b92915050565b6000819050919050565b60006105086105036104fe8461041c565b6104e3565b61041c565b9050919050565b600061051a826104ed565b9050919050565b600061052c8261050f565b9050919050565b61053c81610521565b82525050565b60006020820190506105576000830184610533565b92915050565b600080fd5b600080fd5b6000601f19601f8301169050919050565b7f4e487b7100000000000000000000000000000000000000000000000000000000600052604160045260246000fd5b6105b082610567565b810181811067ffffffffffffffff821117156105cf576105ce610578565b5b80604052505050565b60006105e2610408565b90506105ee82826105a7565b919050565b600067ffffffffffffffff82111561060e5761060d610578565b5b61061782610567565b9050602081019050919050565b60005b83811015610642578082015181840152602081019050610627565b60008484015250505050565b600061066161065c846105f3565b6105d8565b90508281526020810184848401111561067d5761067c610562565b5b610688848285610624565b509392505050565b600082601f8301126106a5576106a461055d565b5b81516106b584826020860161064e565b91505092915050565b6000602082840312156106d4576106d3610412565b5b600082015167ffffffffffffffff8111156106f2576106f1610417565b5b6106fe84828501610690565b91505092915050565b600081905092915050565b7f5553444320000000000000000000000000000000000000000000000000000000600082015250565b6000610748600583610707565b915061075382610712565b600582019050919050565b600081519050919050565b60006107748261075e565b61077e8185610707565b935061078e818560208601610624565b80840191505092915050565b60006107a58261073b565b91506107b18284610769565b915081905092915050565b7f7800000000000000000000000000000000000000000000000000000000000000600082015250565b60006107f2600183610707565b91506107fd826107bc565b600182019050919050565b60006108148284610769565b915061081f826107e5565b915081905092915050565b60006108358261043c565b9050919050565b6108458161082a565b811461085057600080fd5b50565b6000815190506108628161083c565b92915050565b60006020828403121561087e5761087d610412565b5b600061088c84828501610853565b91505092915050565b60006108a08261050f565b9050919050565b6108b081610895565b82525050565b7f4e487b7100000000000000000000000000000000000000000000000000000000600052602160045260246000fd5b600381106108f6576108f56108b6565b5b50565b6000819050610907826108e5565b919050565b6000610917826108f9565b9050919050565b6109278161090c565b82525050565b600082825260208201905092915050565b60006109498261075e565b610953818561092d565b9350610963818560208601610624565b61096c81610567565b840191505092915050565b600060808201905061098c60008301876108a7565b610999602083018661091e565b81810360408301526109ab818561093e565b905081810360608301526109bf818461093e565b905095945050505050565b60006109d58261043c565b9050919050565b6109e5816109ca565b81146109f057600080fd5b50565b600081519050610a02816109dc565b92915050565b600060208284031215610a1e57610a1d610412565b5b6000610a2c848285016109f3565b9150509291505056fea26469706673582212209d1817c02e9ea97a7de21bae9c25c9c23e68a7696efef9f54898987e5dfa9e0b64736f6c63430008140033",
    "linkReferences": {},
    "deployedLinkReferences": {}
}