{
    "_format": "hh-sol-artifact-1",
    "contractName": "User",
    "sourceName": "contracts/User.sol",
    "abi": [
        {
            "inputs": [
                {
                    "internalType": "string",
                    "name": "ipfsHash",
                    "type": "string"
                }
            ],
            "stateMutability": "nonpayable",
            "type": "constructor"
        },
        {
            "anonymous": false,
            "inputs": [
                {
                    "indexed": false,
                    "internalType": "address",
                    "name": "_from",
                    "type": "address"
                },
                {
                    "indexed": false,
                    "internalType": "string",
                    "name": "ipfsHash",
                    "type": "string"
                }
            ],
            "name": "newUser",
            "type": "event"
        },
        {
            "inputs": [
                {
                    "internalType": "address",
                    "name": "",
                    "type": "address"
                }
            ],
            "name": "addressToBool",
            "outputs": [
                {
                    "internalType": "bool",
                    "name": "",
                    "type": "bool"
                }
            ],
            "stateMutability": "view",
            "type": "function"
        },
        {
            "inputs": [
                {
                    "internalType": "string",
                    "name": "ipfsHash",
                    "type": "string"
                }
            ],
            "name": "createUser",
            "outputs": [
                {
                    "internalType": "bool",
                    "name": "",
                    "type": "bool"
                }
            ],
            "stateMutability": "nonpayable",
            "type": "function"
        },
        {
            "inputs": [],
            "name": "getIndexByAddress",
            "outputs": [
                {
                    "internalType": "uint256",
                    "name": "",
                    "type": "uint256"
                }
            ],
            "stateMutability": "view",
            "type": "function"
        },
        {
            "inputs": [],
            "name": "getIpfsHash",
            "outputs": [
                {
                    "internalType": "string",
                    "name": "",
                    "type": "string"
                }
            ],
            "stateMutability": "view",
            "type": "function"
        },
        {
            "inputs": [],
            "name": "userExists",
            "outputs": [
                {
                    "internalType": "bool",
                    "name": "",
                    "type": "bool"
                }
            ],
            "stateMutability": "view",
            "type": "function"
        }
    ],
    "bytecode": "0x60806040523480156200001157600080fd5b506040516200112e3803806200112e83398181016040528101906200003791906200026b565b6002339080600181540180825580915050600190039060005260206000200160009091909190916101000a81548173ffffffffffffffffffffffffffffffffffffffff021916908373ffffffffffffffffffffffffffffffffffffffff160217905550600381908060018154018082558091505060019003906000526020600020016000909190919091509081620000d0919062000507565b5050620005ee565b6000604051905090565b600080fd5b600080fd5b600080fd5b600080fd5b6000601f19601f8301169050919050565b7f4e487b7100000000000000000000000000000000000000000000000000000000600052604160045260246000fd5b6200014182620000f6565b810181811067ffffffffffffffff8211171562000163576200016262000107565b5b80604052505050565b600062000178620000d8565b905062000186828262000136565b919050565b600067ffffffffffffffff821115620001a957620001a862000107565b5b620001b482620000f6565b9050602081019050919050565b60005b83811015620001e1578082015181840152602081019050620001c4565b60008484015250505050565b600062000204620001fe846200018b565b6200016c565b905082815260208101848484011115620002235762000222620000f1565b5b62000230848285620001c1565b509392505050565b600082601f83011262000250576200024f620000ec565b5b815162000262848260208601620001ed565b91505092915050565b600060208284031215620002845762000283620000e2565b5b600082015167ffffffffffffffff811115620002a557620002a4620000e7565b5b620002b38482850162000238565b91505092915050565b600081519050919050565b7f4e487b7100000000000000000000000000000000000000000000000000000000600052602260045260246000fd5b600060028204905060018216806200030f57607f821691505b602082108103620003255762000324620002c7565b5b50919050565b60008190508160005260206000209050919050565b60006020601f8301049050919050565b600082821b905092915050565b6000600883026200038f7fffffffffffffffffffffffffffffffffffffffffffffffffffffffffffffffff8262000350565b6200039b868362000350565b95508019841693508086168417925050509392505050565b6000819050919050565b6000819050919050565b6000620003e8620003e2620003dc84620003b3565b620003bd565b620003b3565b9050919050565b6000819050919050565b6200040483620003c7565b6200041c6200041382620003ef565b8484546200035d565b825550505050565b600090565b6200043362000424565b62000440818484620003f9565b505050565b5b8181101562000468576200045c60008262000429565b60018101905062000446565b5050565b601f821115620004b75762000481816200032b565b6200048c8462000340565b810160208510156200049c578190505b620004b4620004ab8562000340565b83018262000445565b50505b505050565b600082821c905092915050565b6000620004dc60001984600802620004bc565b1980831691505092915050565b6000620004f78383620004c9565b9150826002028217905092915050565b6200051282620002bc565b67ffffffffffffffff8111156200052e576200052d62000107565b5b6200053a8254620002f6565b620005478282856200046c565b600060209050601f8311600181146200057f57600084156200056a578287015190505b620005768582620004e9565b865550620005e6565b601f1984166200058f866200032b565b60005b82811015620005b95784890151825560018201915060208501945060208101905062000592565b86831015620005d95784890151620005d5601f891682620004c9565b8355505b6001600288020188555050505b505050505050565b610b3080620005fe6000396000f3fe608060405234801561001057600080fd5b50600436106100575760003560e01c80631ea2be401461005c578063507ffba51461007a578063694e34cc146100aa578063dc9638c7146100da578063eae6d4da146100f8575b600080fd5b610064610116565b604051610071919061042b565b60405180910390f35b610094600480360381019061008f91906105a0565b61015c565b6040516100a19190610604565b60405180910390f35b6100c460048036038101906100bf919061067d565b6102e3565b6040516100d19190610604565b60405180910390f35b6100e2610303565b6040516100ef9190610729565b60405180910390f35b6101006103be565b60405161010d9190610604565b60405180910390f35b60008060003373ffffffffffffffffffffffffffffffffffffffff1673ffffffffffffffffffffffffffffffffffffffff16815260200190815260200160002054905090565b60006002339080600181540180825580915050600190039060005260206000200160009091909190916101000a81548173ffffffffffffffffffffffffffffffffffffffff021916908373ffffffffffffffffffffffffffffffffffffffff1602179055506003829080600181540180825580915050600190039060005260206000200160009091909190915090816101f59190610957565b5060018060003373ffffffffffffffffffffffffffffffffffffffff1673ffffffffffffffffffffffffffffffffffffffff16815260200190815260200160002060006101000a81548160ff021916908315150217905550600160028054905061025f9190610a58565b6000803373ffffffffffffffffffffffffffffffffffffffff1673ffffffffffffffffffffffffffffffffffffffff168152602001908152602001600020819055507f4d83534e36ded6d5924f881b25f9f4f3a19d78be775e0becc3d5165ea20f696633836040516102d2929190610a9b565b60405180910390a160019050919050565b60016020528060005260406000206000915054906101000a900460ff1681565b6060600061030f610116565b90506003818154811061032557610324610acb565b5b90600052602060002001805461033a9061077a565b80601f01602080910402602001604051908101604052809291908181526020018280546103669061077a565b80156103b35780601f10610388576101008083540402835291602001916103b3565b820191906000526020600020905b81548152906001019060200180831161039657829003601f168201915b505050505091505090565b6000600160003373ffffffffffffffffffffffffffffffffffffffff1673ffffffffffffffffffffffffffffffffffffffff16815260200190815260200160002060009054906101000a900460ff16905090565b6000819050919050565b61042581610412565b82525050565b6000602082019050610440600083018461041c565b92915050565b6000604051905090565b600080fd5b600080fd5b600080fd5b600080fd5b6000601f19601f8301169050919050565b7f4e487b7100000000000000000000000000000000000000000000000000000000600052604160045260246000fd5b6104ad82610464565b810181811067ffffffffffffffff821117156104cc576104cb610475565b5b80604052505050565b60006104df610446565b90506104eb82826104a4565b919050565b600067ffffffffffffffff82111561050b5761050a610475565b5b61051482610464565b9050602081019050919050565b82818337600083830152505050565b600061054361053e846104f0565b6104d5565b90508281526020810184848401111561055f5761055e61045f565b5b61056a848285610521565b509392505050565b600082601f8301126105875761058661045a565b5b8135610597848260208601610530565b91505092915050565b6000602082840312156105b6576105b5610450565b5b600082013567ffffffffffffffff8111156105d4576105d3610455565b5b6105e084828501610572565b91505092915050565b60008115159050919050565b6105fe816105e9565b82525050565b600060208201905061061960008301846105f5565b92915050565b600073ffffffffffffffffffffffffffffffffffffffff82169050919050565b600061064a8261061f565b9050919050565b61065a8161063f565b811461066557600080fd5b50565b60008135905061067781610651565b92915050565b60006020828403121561069357610692610450565b5b60006106a184828501610668565b91505092915050565b600081519050919050565b600082825260208201905092915050565b60005b838110156106e45780820151818401526020810190506106c9565b60008484015250505050565b60006106fb826106aa565b61070581856106b5565b93506107158185602086016106c6565b61071e81610464565b840191505092915050565b6000602082019050818103600083015261074381846106f0565b905092915050565b7f4e487b7100000000000000000000000000000000000000000000000000000000600052602260045260246000fd5b6000600282049050600182168061079257607f821691505b6020821081036107a5576107a461074b565b5b50919050565b60008190508160005260206000209050919050565b60006020601f8301049050919050565b600082821b905092915050565b60006008830261080d7fffffffffffffffffffffffffffffffffffffffffffffffffffffffffffffffff826107d0565b61081786836107d0565b95508019841693508086168417925050509392505050565b6000819050919050565b600061085461084f61084a84610412565b61082f565b610412565b9050919050565b6000819050919050565b61086e83610839565b61088261087a8261085b565b8484546107dd565b825550505050565b600090565b61089761088a565b6108a2818484610865565b505050565b5b818110156108c6576108bb60008261088f565b6001810190506108a8565b5050565b601f82111561090b576108dc816107ab565b6108e5846107c0565b810160208510156108f4578190505b610908610900856107c0565b8301826108a7565b50505b505050565b600082821c905092915050565b600061092e60001984600802610910565b1980831691505092915050565b6000610947838361091d565b9150826002028217905092915050565b610960826106aa565b67ffffffffffffffff81111561097957610978610475565b5b610983825461077a565b61098e8282856108ca565b600060209050601f8311600181146109c157600084156109af578287015190505b6109b9858261093b565b865550610a21565b601f1984166109cf866107ab565b60005b828110156109f7578489015182556001820191506020850194506020810190506109d2565b86831015610a145784890151610a10601f89168261091d565b8355505b6001600288020188555050505b505050505050565b7f4e487b7100000000000000000000000000000000000000000000000000000000600052601160045260246000fd5b6000610a6382610412565b9150610a6e83610412565b9250828203905081811115610a8657610a85610a29565b5b92915050565b610a958161063f565b82525050565b6000604082019050610ab06000830185610a8c565b8181036020830152610ac281846106f0565b90509392505050565b7f4e487b7100000000000000000000000000000000000000000000000000000000600052603260045260246000fdfea264697066735822122067aa3b53b6e50dd00b155be8db705688bc9822d3635e584a867608ff002a855364736f6c63430008140033",
    "linkReferences": {},
    "deployedLinkReferences": {}
}